{
  "_format": "hh-sol-artifact-1",
  "contractName": "ERC721NFT",
  "sourceName": "contracts/ERC721NFT.sol",
  "abi": [
    {
      "inputs": [
        {
          "internalType": "string",
          "name": "_name",
          "type": "string"
        },
        {
          "internalType": "string",
          "name": "_symbol",
          "type": "string"
        },
        {
          "internalType": "string",
          "name": "_baseTokenURI",
          "type": "string"
        },
        {
          "internalType": "uint256",
          "name": "_maxSupply",
          "type": "uint256"
        },
        {
          "internalType": "uint256",
          "name": "_royaltyPercentage",
          "type": "uint256"
        },
        {
          "internalType": "address",
          "name": "_royaltyRecipient",
          "type": "address"
        },
        {
          "internalType": "uint256",
          "name": "_mintPrice",
          "type": "uint256"
        },
        {
          "internalType": "bool",
          "name": "_isPublicMint",
          "type": "bool"
        },
        {
          "internalType": "address",
          "name": "_owner",
          "type": "address"
        }
      ],
      "stateMutability": "nonpayable",
      "type": "constructor"
    },
    {
      "anonymous": false,
      "inputs": [
        {
          "indexed": true,
          "internalType": "address",
          "name": "owner",
          "type": "address"
        },
        {
          "indexed": true,
          "internalType": "address",
          "name": "approved",
          "type": "address"
        },
        {
          "indexed": true,
          "internalType": "uint256",
          "name": "tokenId",
          "type": "uint256"
        }
      ],
      "name": "Approval",
      "type": "event"
    },
    {
      "anonymous": false,
      "inputs": [
        {
          "indexed": true,
          "internalType": "address",
          "name": "owner",
          "type": "address"
        },
        {
          "indexed": true,
          "internalType": "address",
          "name": "operator",
          "type": "address"
        },
        {
          "indexed": false,
          "internalType": "bool",
          "name": "approved",
          "type": "bool"
        }
      ],
      "name": "ApprovalForAll",
      "type": "event"
    },
    {
      "anonymous": false,
      "inputs": [
        {
          "indexed": false,
          "internalType": "string",
          "name": "newBaseURI",
          "type": "string"
        }
      ],
      "name": "BaseURIUpdated",
      "type": "event"
    },
    {
      "anonymous": false,
      "inputs": [
        {
          "indexed": false,
          "internalType": "uint256",
          "name": "_fromTokenId",
          "type": "uint256"
        },
        {
          "indexed": false,
          "internalType": "uint256",
          "name": "_toTokenId",
          "type": "uint256"
        }
      ],
      "name": "BatchMetadataUpdate",
      "type": "event"
    },
    {
      "anonymous": false,
      "inputs": [
        {
          "indexed": false,
          "internalType": "uint256",
          "name": "_tokenId",
          "type": "uint256"
        }
      ],
      "name": "MetadataUpdate",
      "type": "event"
    },
    {
      "anonymous": false,
      "inputs": [
        {
          "indexed": false,
          "internalType": "uint256",
          "name": "newPrice",
          "type": "uint256"
        }
      ],
      "name": "MintPriceUpdated",
      "type": "event"
    },
    {
      "anonymous": false,
      "inputs": [
        {
          "indexed": true,
          "internalType": "address",
          "name": "minter",
          "type": "address"
        },
        {
          "indexed": true,
          "internalType": "uint256",
          "name": "tokenId",
          "type": "uint256"
        },
        {
          "indexed": false,
          "internalType": "string",
          "name": "tokenURI",
          "type": "string"
        }
      ],
      "name": "NFTMinted",
      "type": "event"
    },
    {
      "anonymous": false,
      "inputs": [
        {
          "indexed": true,
          "internalType": "address",
          "name": "previousOwner",
          "type": "address"
        },
        {
          "indexed": true,
          "internalType": "address",
          "name": "newOwner",
          "type": "address"
        }
      ],
      "name": "OwnershipTransferred",
      "type": "event"
    },
    {
      "anonymous": false,
      "inputs": [
        {
          "indexed": false,
          "internalType": "bool",
          "name": "enabled",
          "type": "bool"
        }
      ],
      "name": "PublicMintToggled",
      "type": "event"
    },
    {
      "anonymous": false,
      "inputs": [
        {
          "indexed": true,
          "internalType": "address",
          "name": "from",
          "type": "address"
        },
        {
          "indexed": true,
          "internalType": "address",
          "name": "to",
          "type": "address"
        },
        {
          "indexed": true,
          "internalType": "uint256",
          "name": "tokenId",
          "type": "uint256"
        }
      ],
      "name": "Transfer",
      "type": "event"
    },
    {
      "anonymous": false,
      "inputs": [
        {
          "indexed": true,
          "internalType": "address",
          "name": "recipient",
          "type": "address"
        },
        {
          "indexed": false,
          "internalType": "uint256",
          "name": "amount",
          "type": "uint256"
        }
      ],
      "name": "Withdrawn",
      "type": "event"
    },
    {
      "inputs": [
        {
          "internalType": "address[]",
          "name": "addresses",
          "type": "address[]"
        }
      ],
      "name": "addToWhitelist",
      "outputs": [],
      "stateMutability": "nonpayable",
      "type": "function"
    },
    {
      "inputs": [
        {
          "internalType": "address",
          "name": "to",
          "type": "address"
        },
        {
          "internalType": "uint256",
          "name": "tokenId",
          "type": "uint256"
        }
      ],
      "name": "approve",
      "outputs": [],
      "stateMutability": "nonpayable",
      "type": "function"
    },
    {
      "inputs": [
        {
          "internalType": "address",
          "name": "owner",
          "type": "address"
        }
      ],
      "name": "balanceOf",
      "outputs": [
        {
          "internalType": "uint256",
          "name": "",
          "type": "uint256"
        }
      ],
      "stateMutability": "view",
      "type": "function"
    },
    {
      "inputs": [],
      "name": "baseTokenURI",
      "outputs": [
        {
          "internalType": "string",
          "name": "",
          "type": "string"
        }
      ],
      "stateMutability": "view",
      "type": "function"
    },
    {
      "inputs": [
        {
          "internalType": "address[]",
          "name": "recipients",
          "type": "address[]"
        },
        {
          "internalType": "string[]",
          "name": "tokenURIs",
          "type": "string[]"
        }
      ],
      "name": "batchMint",
      "outputs": [],
      "stateMutability": "nonpayable",
      "type": "function"
    },
    {
      "inputs": [
        {
          "internalType": "uint256",
          "name": "tokenId",
          "type": "uint256"
        }
      ],
      "name": "getApproved",
      "outputs": [
        {
          "internalType": "address",
          "name": "",
          "type": "address"
        }
      ],
      "stateMutability": "view",
      "type": "function"
    },
    {
      "inputs": [
        {
          "internalType": "address",
          "name": "owner",
          "type": "address"
        },
        {
          "internalType": "address",
          "name": "operator",
          "type": "address"
        }
      ],
      "name": "isApprovedForAll",
      "outputs": [
        {
          "internalType": "bool",
          "name": "",
          "type": "bool"
        }
      ],
      "stateMutability": "view",
      "type": "function"
    },
    {
      "inputs": [],
      "name": "isPublicMintEnabled",
      "outputs": [
        {
          "internalType": "bool",
          "name": "",
          "type": "bool"
        }
      ],
      "stateMutability": "view",
      "type": "function"
    },
    {
      "inputs": [],
      "name": "maxSupply",
      "outputs": [
        {
          "internalType": "uint256",
          "name": "",
          "type": "uint256"
        }
      ],
      "stateMutability": "view",
      "type": "function"
    },
    {
      "inputs": [
        {
          "internalType": "string",
          "name": "tokenURI",
          "type": "string"
        }
      ],
      "name": "mint",
      "outputs": [
        {
          "internalType": "uint256",
          "name": "",
          "type": "uint256"
        }
      ],
      "stateMutability": "payable",
      "type": "function"
    },
    {
      "inputs": [],
      "name": "mintPrice",
      "outputs": [
        {
          "internalType": "uint256",
          "name": "",
          "type": "uint256"
        }
      ],
      "stateMutability": "view",
      "type": "function"
    },
    {
      "inputs": [],
      "name": "name",
      "outputs": [
        {
          "internalType": "string",
          "name": "",
          "type": "string"
        }
      ],
      "stateMutability": "view",
      "type": "function"
    },
    {
      "inputs": [],
      "name": "owner",
      "outputs": [
        {
          "internalType": "address",
          "name": "",
          "type": "address"
        }
      ],
      "stateMutability": "view",
      "type": "function"
    },
    {
      "inputs": [
        {
          "internalType": "uint256",
          "name": "tokenId",
          "type": "uint256"
        }
      ],
      "name": "ownerOf",
      "outputs": [
        {
          "internalType": "address",
          "name": "",
          "type": "address"
        }
      ],
      "stateMutability": "view",
      "type": "function"
    },
    {
      "inputs": [
        {
          "internalType": "address[]",
          "name": "addresses",
          "type": "address[]"
        }
      ],
      "name": "removeFromWhitelist",
      "outputs": [],
      "stateMutability": "nonpayable",
      "type": "function"
    },
    {
      "inputs": [],
      "name": "renounceOwnership",
      "outputs": [],
      "stateMutability": "nonpayable",
      "type": "function"
    },
    {
      "inputs": [
        {
          "internalType": "uint256",
          "name": "",
          "type": "uint256"
        },
        {
          "internalType": "uint256",
          "name": "salePrice",
          "type": "uint256"
        }
      ],
      "name": "royaltyInfo",
      "outputs": [
        {
          "internalType": "address",
          "name": "receiver",
          "type": "address"
        },
        {
          "internalType": "uint256",
          "name": "royaltyAmount",
          "type": "uint256"
        }
      ],
      "stateMutability": "view",
      "type": "function"
    },
    {
      "inputs": [],
      "name": "royaltyPercentage",
      "outputs": [
        {
          "internalType": "uint256",
          "name": "",
          "type": "uint256"
        }
      ],
      "stateMutability": "view",
      "type": "function"
    },
    {
      "inputs": [],
      "name": "royaltyRecipient",
      "outputs": [
        {
          "internalType": "address",
          "name": "",
          "type": "address"
        }
      ],
      "stateMutability": "view",
      "type": "function"
    },
    {
      "inputs": [
        {
          "internalType": "address",
          "name": "from",
          "type": "address"
        },
        {
          "internalType": "address",
          "name": "to",
          "type": "address"
        },
        {
          "internalType": "uint256",
          "name": "tokenId",
          "type": "uint256"
        }
      ],
      "name": "safeTransferFrom",
      "outputs": [],
      "stateMutability": "nonpayable",
      "type": "function"
    },
    {
      "inputs": [
        {
          "internalType": "address",
          "name": "from",
          "type": "address"
        },
        {
          "internalType": "address",
          "name": "to",
          "type": "address"
        },
        {
          "internalType": "uint256",
          "name": "tokenId",
          "type": "uint256"
        },
        {
          "internalType": "bytes",
          "name": "data",
          "type": "bytes"
        }
      ],
      "name": "safeTransferFrom",
      "outputs": [],
      "stateMutability": "nonpayable",
      "type": "function"
    },
    {
      "inputs": [
        {
          "internalType": "address",
          "name": "operator",
          "type": "address"
        },
        {
          "internalType": "bool",
          "name": "approved",
          "type": "bool"
        }
      ],
      "name": "setApprovalForAll",
      "outputs": [],
      "stateMutability": "nonpayable",
      "type": "function"
    },
    {
      "inputs": [
        {
          "internalType": "string",
          "name": "_baseTokenURI",
          "type": "string"
        }
      ],
      "name": "setBaseURI",
      "outputs": [],
      "stateMutability": "nonpayable",
      "type": "function"
    },
    {
      "inputs": [
        {
          "internalType": "uint256",
          "name": "_mintPrice",
          "type": "uint256"
        }
      ],
      "name": "setMintPrice",
      "outputs": [],
      "stateMutability": "nonpayable",
      "type": "function"
    },
    {
      "inputs": [
        {
          "internalType": "bytes4",
          "name": "interfaceId",
          "type": "bytes4"
        }
      ],
      "name": "supportsInterface",
      "outputs": [
        {
          "internalType": "bool",
          "name": "",
          "type": "bool"
        }
      ],
      "stateMutability": "view",
      "type": "function"
    },
    {
      "inputs": [],
      "name": "symbol",
      "outputs": [
        {
          "internalType": "string",
          "name": "",
          "type": "string"
        }
      ],
      "stateMutability": "view",
      "type": "function"
    },
    {
      "inputs": [
        {
          "internalType": "bool",
          "name": "_enabled",
          "type": "bool"
        }
      ],
      "name": "togglePublicMint",
      "outputs": [],
      "stateMutability": "nonpayable",
      "type": "function"
    },
    {
      "inputs": [
        {
          "internalType": "uint256",
          "name": "tokenId",
          "type": "uint256"
        }
      ],
      "name": "tokenURI",
      "outputs": [
        {
          "internalType": "string",
          "name": "",
          "type": "string"
        }
      ],
      "stateMutability": "view",
      "type": "function"
    },
    {
      "inputs": [],
      "name": "totalSupply",
      "outputs": [
        {
          "internalType": "uint256",
          "name": "",
          "type": "uint256"
        }
      ],
      "stateMutability": "view",
      "type": "function"
    },
    {
      "inputs": [
        {
          "internalType": "address",
          "name": "from",
          "type": "address"
        },
        {
          "internalType": "address",
          "name": "to",
          "type": "address"
        },
        {
          "internalType": "uint256",
          "name": "tokenId",
          "type": "uint256"
        }
      ],
      "name": "transferFrom",
      "outputs": [],
      "stateMutability": "nonpayable",
      "type": "function"
    },
    {
      "inputs": [
        {
          "internalType": "address",
          "name": "newOwner",
          "type": "address"
        }
      ],
      "name": "transferOwnership",
      "outputs": [],
      "stateMutability": "nonpayable",
      "type": "function"
    },
    {
      "inputs": [
        {
          "internalType": "address",
          "name": "",
          "type": "address"
        }
      ],
      "name": "whitelist",
      "outputs": [
        {
          "internalType": "bool",
          "name": "",
          "type": "bool"
        }
      ],
      "stateMutability": "view",
      "type": "function"
    },
    {
      "inputs": [],
      "name": "withdraw",
      "outputs": [],
      "stateMutability": "nonpayable",
      "type": "function"
    }
  ],
  "bytecode": "0x60806040523480156200001157600080fd5b5060405162002a3e38038062002a3e83398101604081905262000034916200023f565b88886000620000448382620003b5565b506001620000538282620003b5565b505050620000706200006a620000f660201b60201c565b620000fa565b6001600855600a620000838882620003b5565b50600b869055600d859055600e8054600c859055831515600160a01b026001600160a81b03199091166001600160a01b03871617179055620000c581620000fa565b6001600160a01b03166000908152600f60205260409020805460ff1916600117905550620004819650505050505050565b3390565b600780546001600160a01b038381166001600160a01b0319831681179093556040519116919082907f8be0079c531659141344cd1fd0a4f28419497f9722a3daafe3b4186f6b6457e090600090a35050565b634e487b7160e01b600052604160045260246000fd5b600082601f8301126200017457600080fd5b81516001600160401b03808211156200019157620001916200014c565b604051601f8301601f19908116603f01168101908282118183101715620001bc57620001bc6200014c565b81604052838152602092508683858801011115620001d957600080fd5b600091505b83821015620001fd5785820183015181830184015290820190620001de565b600093810190920192909252949350505050565b80516001600160a01b03811681146200022957600080fd5b919050565b805180151581146200022957600080fd5b60008060008060008060008060006101208a8c0312156200025f57600080fd5b89516001600160401b03808211156200027757600080fd5b620002858d838e0162000162565b9a5060208c01519150808211156200029c57600080fd5b620002aa8d838e0162000162565b995060408c0151915080821115620002c157600080fd5b50620002d08c828d0162000162565b97505060608a0151955060808a01519450620002ef60a08b0162000211565b935060c08a015192506200030660e08b016200022e565b9150620003176101008b0162000211565b90509295985092959850929598565b600181811c908216806200033b57607f821691505b6020821081036200035c57634e487b7160e01b600052602260045260246000fd5b50919050565b601f821115620003b057600081815260208120601f850160051c810160208610156200038b5750805b601f850160051c820191505b81811015620003ac5782815560010162000397565b5050505b505050565b81516001600160401b03811115620003d157620003d16200014c565b620003e981620003e2845462000326565b8462000362565b602080601f831160018114620004215760008415620004085750858301515b600019600386901b1c1916600185901b178555620003ac565b600085815260208120601f198616915b82811015620004525788860151825594840194600190910190840162000431565b5085821015620004715787850151600019600388901b60f8161c191681555b5050505050600190811b01905550565b6125ad80620004916000396000f3fe6080604052600436106101ee5760003560e01c806370a082311161010d578063a22cb465116100a0578063d5abeb011161006f578063d5abeb0114610595578063d85d3d27146105ab578063e985e9c5146105be578063f2fde38b146105de578063f4a0a528146105fe57600080fd5b8063a22cb46514610520578063b88d4fde14610540578063c87b56dd14610560578063d547cfb71461058057600080fd5b80638da5cb5b116100dc5780638da5cb5b1461049d57806395d89b41146104bb5780639b19251a146104d05780639b7c1c831461050057600080fd5b806370a0823114610432578063715018a6146104525780637f649783146104675780638a71bb2d1461048757600080fd5b80633ccfd60b1161018557806355f804b31161015457806355f804b3146103bc5780636352211e146103dc57806364ba144e146103fc5780636817c76c1461041c57600080fd5b80633ccfd60b1461034757806342842e0e1461035c5780634c00de821461037c578063548db1741461039c57600080fd5b8063095ea7b3116101c1578063095ea7b3146102a357806318160ddd146102c557806323b872dd146102e85780632a55205a1461030857600080fd5b80630116bc2d146101f357806301ffc9a71461022957806306fdde0314610249578063081812fc1461026b575b600080fd5b3480156101ff57600080fd5b50600e5461021490600160a01b900460ff1681565b60405190151581526020015b60405180910390f35b34801561023557600080fd5b50610214610244366004611d46565b61061e565b34801561025557600080fd5b5061025e61062f565b6040516102209190611db3565b34801561027757600080fd5b5061028b610286366004611dc6565b6106c1565b6040516001600160a01b039091168152602001610220565b3480156102af57600080fd5b506102c36102be366004611df6565b6106e8565b005b3480156102d157600080fd5b506102da610802565b604051908152602001610220565b3480156102f457600080fd5b506102c3610303366004611e20565b610812565b34801561031457600080fd5b50610328610323366004611e5c565b610843565b604080516001600160a01b039093168352602083019190915201610220565b34801561035357600080fd5b506102c3610877565b34801561036857600080fd5b506102c3610377366004611e20565b6109d2565b34801561038857600080fd5b50600e5461028b906001600160a01b031681565b3480156103a857600080fd5b506102c36103b7366004611f5b565b6109ed565b3480156103c857600080fd5b506102c36103d7366004612008565b610a61565b3480156103e857600080fd5b5061028b6103f7366004611dc6565b610ab0565b34801561040857600080fd5b506102c361041736600461203d565b610b10565b34801561042857600080fd5b506102da600c5481565b34801561043e57600080fd5b506102da61044d366004612112565b610cd3565b34801561045e57600080fd5b506102c3610d59565b34801561047357600080fd5b506102c3610482366004611f5b565b610d6b565b34801561049357600080fd5b506102da600d5481565b3480156104a957600080fd5b506007546001600160a01b031661028b565b3480156104c757600080fd5b5061025e610ddb565b3480156104dc57600080fd5b506102146104eb366004612112565b600f6020526000908152604090205460ff1681565b34801561050c57600080fd5b506102c361051b36600461213d565b610dea565b34801561052c57600080fd5b506102c361053b366004612158565b610e3f565b34801561054c57600080fd5b506102c361055b36600461218b565b610e4a565b34801561056c57600080fd5b5061025e61057b366004611dc6565b610e82565b34801561058c57600080fd5b5061025e610e8d565b3480156105a157600080fd5b506102da600b5481565b6102da6105b9366004612008565b610f1b565b3480156105ca57600080fd5b506102146105d9366004612207565b6110c1565b3480156105ea57600080fd5b506102c36105f9366004612112565b6110ef565b34801561060a57600080fd5b506102c3610619366004611dc6565b611168565b6000610629826111a5565b92915050565b60606000805461063e90612231565b80601f016020809104026020016040519081016040528092919081815260200182805461066a90612231565b80156106b75780601f1061068c576101008083540402835291602001916106b7565b820191906000526020600020905b81548152906001019060200180831161069a57829003601f168201915b5050505050905090565b60006106cc826111ca565b506000908152600460205260409020546001600160a01b031690565b60006106f382610ab0565b9050806001600160a01b0316836001600160a01b0316036107655760405162461bcd60e51b815260206004820152602160248201527f4552433732313a20617070726f76616c20746f2063757272656e74206f776e656044820152603960f91b60648201526084015b60405180910390fd5b336001600160a01b0382161480610781575061078181336110c1565b6107f35760405162461bcd60e51b815260206004820152603d60248201527f4552433732313a20617070726f76652063616c6c6572206973206e6f7420746f60448201527f6b656e206f776e6572206f7220617070726f76656420666f7220616c6c000000606482015260840161075c565b6107fd8383611229565b505050565b600061080d60095490565b905090565b61081c3382611297565b6108385760405162461bcd60e51b815260040161075c9061226b565b6107fd8383836112f6565b600080612710600d548461085791906122ce565b61086191906122e5565b600e546001600160a01b03169590945092505050565b61087f61145a565b6108876114b4565b47806108ce5760405162461bcd60e51b81526020600482015260166024820152754e6f2062616c616e636520746f20776974686472617760501b604482015260640161075c565b60006108e26007546001600160a01b031690565b6001600160a01b03168260405160006040518083038185875af1925050503d806000811461092c576040519150601f19603f3d011682016040523d82523d6000602084013e610931565b606091505b50509050806109765760405162461bcd60e51b815260206004820152601160248201527015da5d1a191c985dd85b0819985a5b1959607a1b604482015260640161075c565b6007546001600160a01b03166001600160a01b03167f7084f5476618d8e60b11ef0d7d3f06914655adb8793e28ff7f018d4c76d505d5836040516109bc91815260200190565b60405180910390a250506109d06001600855565b565b6107fd83838360405180602001604052806000815250610e4a565b6109f561145a565b60005b8151811015610a5d576000600f6000848481518110610a1957610a19612307565b6020908102919091018101516001600160a01b03168252810191909152604001600020805460ff191691151591909117905580610a558161231d565b9150506109f8565b5050565b610a6961145a565b600a610a758282612384565b507f6741b2fc379fad678116fe3d4d4b9a1a184ab53ba36b86ad0fa66340b1ab41ad81604051610aa59190611db3565b60405180910390a150565b6000818152600260205260408120546001600160a01b0316806106295760405162461bcd60e51b8152602060048201526018602482015277115490cdcc8c4e881a5b9d985b1a59081d1bdad95b88125160421b604482015260640161075c565b610b1861145a565b610b206114b4565b8051825114610b695760405162461bcd60e51b8152602060048201526015602482015274082e4e4c2f240d8cadccee8d040dad2e6dac2e8c6d605b1b604482015260640161075c565b600b541580610b885750600b548251600954610b859190612444565b11155b610bd45760405162461bcd60e51b815260206004820152601760248201527f576f756c6420657863656564206d617820737570706c79000000000000000000604482015260640161075c565b60005b8251811015610cc857610bee600980546001019055565b6000610bf960095490565b9050610c1e848381518110610c1057610c10612307565b60200260200101518261150d565b610c4181848481518110610c3457610c34612307565b6020026020010151611527565b80848381518110610c5457610c54612307565b60200260200101516001600160a01b03167fd35bb95e09c04b219e35047ce7b7b300e3384264ef84a40456943dbc0fc17c14858581518110610c9857610c98612307565b6020026020010151604051610cad9190611db3565b60405180910390a35080610cc08161231d565b915050610bd7565b50610a5d6001600855565b60006001600160a01b038216610d3d5760405162461bcd60e51b815260206004820152602960248201527f4552433732313a2061646472657373207a65726f206973206e6f7420612076616044820152683634b21037bbb732b960b91b606482015260840161075c565b506001600160a01b031660009081526003602052604090205490565b610d6161145a565b6109d060006115f2565b610d7361145a565b60005b8151811015610a5d576001600f6000848481518110610d9757610d97612307565b6020908102919091018101516001600160a01b03168252810191909152604001600020805460ff191691151591909117905580610dd38161231d565b915050610d76565b60606001805461063e90612231565b610df261145a565b600e8054821515600160a01b0260ff60a01b199091161790556040517fa81e445dac2343503dc87e4663774817434721db7d985310a6959766e6d4480e90610aa590831515815260200190565b610a5d338383611644565b610e543383611297565b610e705760405162461bcd60e51b815260040161075c9061226b565b610e7c84848484611712565b50505050565b606061062982611745565b600a8054610e9a90612231565b80601f0160208091040260200160405190810160405280929190818152602001828054610ec690612231565b8015610f135780601f10610ee857610100808354040283529160200191610f13565b820191906000526020600020905b815481529060010190602001808311610ef657829003601f168201915b505050505081565b6000610f256114b4565b600e54600160a01b900460ff1680610f4c5750336000908152600f602052604090205460ff165b80610f6157506007546001600160a01b031633145b610fa35760405162461bcd60e51b8152602060048201526013602482015272135a5b9d1a5b99c81b9bdd08185b1b1bddd959606a1b604482015260640161075c565b600b541580610fb55750600b54600954105b610ff65760405162461bcd60e51b815260206004820152601260248201527113585e081cdd5c1c1b1e481c995858da195960721b604482015260640161075c565b600c5434101561103f5760405162461bcd60e51b8152602060048201526014602482015273125b9cdd59999a58da595b9d081c185e5b595b9d60621b604482015260640161075c565b61104d600980546001019055565b600061105860095490565b9050611064338261150d565b61106e8184611527565b80336001600160a01b03167fd35bb95e09c04b219e35047ce7b7b300e3384264ef84a40456943dbc0fc17c14856040516110a89190611db3565b60405180910390a390506110bc6001600855565b919050565b6001600160a01b03918216600090815260056020908152604080832093909416825291909152205460ff1690565b6110f761145a565b6001600160a01b03811661115c5760405162461bcd60e51b815260206004820152602660248201527f4f776e61626c653a206e6577206f776e657220697320746865207a65726f206160448201526564647265737360d01b606482015260840161075c565b611165816115f2565b50565b61117061145a565b600c8190556040518181527f525b762709cc2a983aec5ccdfd807a061f993c91090b5bcd7da92ca254976aaa90602001610aa5565b60006001600160e01b03198216632483248360e11b1480610629575061062982611840565b6000818152600260205260409020546001600160a01b03166111655760405162461bcd60e51b8152602060048201526018602482015277115490cdcc8c4e881a5b9d985b1a59081d1bdad95b88125160421b604482015260640161075c565b600081815260046020526040902080546001600160a01b0319166001600160a01b038416908117909155819061125e82610ab0565b6001600160a01b03167f8c5be1e5ebec7d5bd14f71427d1e84f3dd0314c0f7b2291e5b200ac8c7c3b92560405160405180910390a45050565b6000806112a383610ab0565b9050806001600160a01b0316846001600160a01b031614806112ca57506112ca81856110c1565b806112ee5750836001600160a01b03166112e3846106c1565b6001600160a01b0316145b949350505050565b826001600160a01b031661130982610ab0565b6001600160a01b03161461132f5760405162461bcd60e51b815260040161075c90612457565b6001600160a01b0382166113915760405162461bcd60e51b8152602060048201526024808201527f4552433732313a207472616e7366657220746f20746865207a65726f206164646044820152637265737360e01b606482015260840161075c565b826001600160a01b03166113a482610ab0565b6001600160a01b0316146113ca5760405162461bcd60e51b815260040161075c90612457565b600081815260046020908152604080832080546001600160a01b03199081169091556001600160a01b0387811680865260038552838620805460001901905590871680865283862080546001019055868652600290945282852080549092168417909155905184937fddf252ad1be2c89b69c2b068fc378daa952ba7f163c4a11628f55a4df523b3ef91a4505050565b6007546001600160a01b031633146109d05760405162461bcd60e51b815260206004820181905260248201527f4f776e61626c653a2063616c6c6572206973206e6f7420746865206f776e6572604482015260640161075c565b6002600854036115065760405162461bcd60e51b815260206004820152601f60248201527f5265656e7472616e637947756172643a207265656e7472616e742063616c6c00604482015260640161075c565b6002600855565b610a5d828260405180602001604052806000815250611890565b6000828152600260205260409020546001600160a01b03166115a25760405162461bcd60e51b815260206004820152602e60248201527f45524337323155524953746f726167653a2055524920736574206f66206e6f6e60448201526d32bc34b9ba32b73a103a37b5b2b760911b606482015260840161075c565b60008281526006602052604090206115ba8282612384565b506040518281527ff8e1a15aba9398e019f0b49df1a4fde98ee17ae345cb5f6b5e2c27f5033e8ce79060200160405180910390a15050565b600780546001600160a01b038381166001600160a01b0319831681179093556040519116919082907f8be0079c531659141344cd1fd0a4f28419497f9722a3daafe3b4186f6b6457e090600090a35050565b816001600160a01b0316836001600160a01b0316036116a55760405162461bcd60e51b815260206004820152601960248201527f4552433732313a20617070726f766520746f2063616c6c657200000000000000604482015260640161075c565b6001600160a01b03838116600081815260056020908152604080832094871680845294825291829020805460ff191686151590811790915591519182527f17307eab39ab6107e8899845ad3d59bd9653f200f220920489ca2b5937696c31910160405180910390a3505050565b61171d8484846112f6565b611729848484846118c3565b610e7c5760405162461bcd60e51b815260040161075c9061249c565b6060611750826111ca565b6000828152600660205260408120805461176990612231565b80601f016020809104026020016040519081016040528092919081815260200182805461179590612231565b80156117e25780601f106117b7576101008083540402835291602001916117e2565b820191906000526020600020905b8154815290600101906020018083116117c557829003601f168201915b5050505050905060006117f36119c4565b90508051600003611805575092915050565b81511561183757808260405160200161181f9291906124ee565b60405160208183030381529060405292505050919050565b6112ee846119d3565b60006001600160e01b031982166380ac58cd60e01b148061187157506001600160e01b03198216635b5e139f60e01b145b8061062957506301ffc9a760e01b6001600160e01b0319831614610629565b61189a8383611a3a565b6118a760008484846118c3565b6107fd5760405162461bcd60e51b815260040161075c9061249c565b60006001600160a01b0384163b156119b957604051630a85bd0160e11b81526001600160a01b0385169063150b7a029061190790339089908890889060040161251d565b6020604051808303816000875af1925050508015611942575060408051601f3d908101601f1916820190925261193f9181019061255a565b60015b61199f573d808015611970576040519150601f19603f3d011682016040523d82523d6000602084013e611975565b606091505b5080516000036119975760405162461bcd60e51b815260040161075c9061249c565b805181602001fd5b6001600160e01b031916630a85bd0160e11b1490506112ee565b506001949350505050565b6060600a805461063e90612231565b60606119de826111ca565b60006119e86119c4565b90506000815111611a085760405180602001604052806000815250611a33565b80611a1284611bc5565b604051602001611a239291906124ee565b6040516020818303038152906040525b9392505050565b6001600160a01b038216611a905760405162461bcd60e51b815260206004820181905260248201527f4552433732313a206d696e7420746f20746865207a65726f2061646472657373604482015260640161075c565b6000818152600260205260409020546001600160a01b031615611af55760405162461bcd60e51b815260206004820152601c60248201527f4552433732313a20746f6b656e20616c7265616479206d696e74656400000000604482015260640161075c565b6000818152600260205260409020546001600160a01b031615611b5a5760405162461bcd60e51b815260206004820152601c60248201527f4552433732313a20746f6b656e20616c7265616479206d696e74656400000000604482015260640161075c565b6001600160a01b038216600081815260036020908152604080832080546001019055848352600290915280822080546001600160a01b0319168417905551839291907fddf252ad1be2c89b69c2b068fc378daa952ba7f163c4a11628f55a4df523b3ef908290a45050565b60606000611bd283611c58565b600101905060008167ffffffffffffffff811115611bf257611bf2611e7e565b6040519080825280601f01601f191660200182016040528015611c1c576020820181803683370190505b5090508181016020015b600019016f181899199a1a9b1b9c1cb0b131b232b360811b600a86061a8153600a8504945084611c2657509392505050565b60008072184f03e93ff9f4daa797ed6e38ed64bf6a1f0160401b8310611c975772184f03e93ff9f4daa797ed6e38ed64bf6a1f0160401b830492506040015b6d04ee2d6d415b85acef81000000008310611cc3576d04ee2d6d415b85acef8100000000830492506020015b662386f26fc100008310611ce157662386f26fc10000830492506010015b6305f5e1008310611cf9576305f5e100830492506008015b6127108310611d0d57612710830492506004015b60648310611d1f576064830492506002015b600a83106106295760010192915050565b6001600160e01b03198116811461116557600080fd5b600060208284031215611d5857600080fd5b8135611a3381611d30565b60005b83811015611d7e578181015183820152602001611d66565b50506000910152565b60008151808452611d9f816020860160208601611d63565b601f01601f19169290920160200192915050565b602081526000611a336020830184611d87565b600060208284031215611dd857600080fd5b5035919050565b80356001600160a01b03811681146110bc57600080fd5b60008060408385031215611e0957600080fd5b611e1283611ddf565b946020939093013593505050565b600080600060608486031215611e3557600080fd5b611e3e84611ddf565b9250611e4c60208501611ddf565b9150604084013590509250925092565b60008060408385031215611e6f57600080fd5b50508035926020909101359150565b634e487b7160e01b600052604160045260246000fd5b604051601f8201601f1916810167ffffffffffffffff81118282101715611ebd57611ebd611e7e565b604052919050565b600067ffffffffffffffff821115611edf57611edf611e7e565b5060051b60200190565b600082601f830112611efa57600080fd5b81356020611f0f611f0a83611ec5565b611e94565b82815260059290921b84018101918181019086841115611f2e57600080fd5b8286015b84811015611f5057611f4381611ddf565b8352918301918301611f32565b509695505050505050565b600060208284031215611f6d57600080fd5b813567ffffffffffffffff811115611f8457600080fd5b6112ee84828501611ee9565b600067ffffffffffffffff831115611faa57611faa611e7e565b611fbd601f8401601f1916602001611e94565b9050828152838383011115611fd157600080fd5b828260208301376000602084830101529392505050565b600082601f830112611ff957600080fd5b611a3383833560208501611f90565b60006020828403121561201a57600080fd5b813567ffffffffffffffff81111561203157600080fd5b6112ee84828501611fe8565b6000806040838503121561205057600080fd5b823567ffffffffffffffff8082111561206857600080fd5b61207486838701611ee9565b935060209150818501358181111561208b57600080fd5b8501601f8101871361209c57600080fd5b80356120aa611f0a82611ec5565b81815260059190911b820184019084810190898311156120c957600080fd5b8584015b83811015612101578035868111156120e55760008081fd5b6120f38c8983890101611fe8565b8452509186019186016120cd565b508096505050505050509250929050565b60006020828403121561212457600080fd5b611a3382611ddf565b803580151581146110bc57600080fd5b60006020828403121561214f57600080fd5b611a338261212d565b6000806040838503121561216b57600080fd5b61217483611ddf565b91506121826020840161212d565b90509250929050565b600080600080608085870312156121a157600080fd5b6121aa85611ddf565b93506121b860208601611ddf565b925060408501359150606085013567ffffffffffffffff8111156121db57600080fd5b8501601f810187136121ec57600080fd5b6121fb87823560208401611f90565b91505092959194509250565b6000806040838503121561221a57600080fd5b61222383611ddf565b915061218260208401611ddf565b600181811c9082168061224557607f821691505b60208210810361226557634e487b7160e01b600052602260045260246000fd5b50919050565b6020808252602d908201527f4552433732313a2063616c6c6572206973206e6f7420746f6b656e206f776e6560408201526c1c881bdc88185c1c1c9bdd9959609a1b606082015260800190565b634e487b7160e01b600052601160045260246000fd5b8082028115828204841417610629576106296122b8565b60008261230257634e487b7160e01b600052601260045260246000fd5b500490565b634e487b7160e01b600052603260045260246000fd5b60006001820161232f5761232f6122b8565b5060010190565b601f8211156107fd57600081815260208120601f850160051c8101602086101561235d5750805b601f850160051c820191505b8181101561237c57828155600101612369565b505050505050565b815167ffffffffffffffff81111561239e5761239e611e7e565b6123b2816123ac8454612231565b84612336565b602080601f8311600181146123e757600084156123cf5750858301515b600019600386901b1c1916600185901b17855561237c565b600085815260208120601f198616915b82811015612416578886015182559484019460019091019084016123f7565b50858210156124345787850151600019600388901b60f8161c191681555b5050505050600190811b01905550565b80820180821115610629576106296122b8565b60208082526025908201527f4552433732313a207472616e736665722066726f6d20696e636f72726563742060408201526437bbb732b960d91b606082015260800190565b60208082526032908201527f4552433732313a207472616e7366657220746f206e6f6e20455243373231526560408201527131b2b4bb32b91034b6b83632b6b2b73a32b960711b606082015260800190565b60008351612500818460208801611d63565b835190830190612514818360208801611d63565b01949350505050565b6001600160a01b038581168252841660208201526040810183905260806060820181905260009061255090830184611d87565b9695505050505050565b60006020828403121561256c57600080fd5b8151611a3381611d3056fea26469706673582212204bcaf546e33761f13d9086cfb7b803fd0a7ee2f411dcb8a4cfe4cf2929a3345564736f6c63430008130033",
  "linkReferences": {},
  "deployedLinkReferences": {}
}