{
  "_format": "hh-sol-artifact-1",
  "contractName": "MetaTransaction",
  "sourceName": "contracts/MetaTransaction.sol",
  "abi": [
    {
      "inputs": [
        {
          "internalType": "string",
          "name": "name",
          "type": "string"
        }
      ],
      "stateMutability": "nonpayable",
      "type": "constructor"
    },
    {
      "inputs": [],
      "name": "InvalidShortString",
      "type": "error"
    },
    {
      "inputs": [
        {
          "internalType": "string",
          "name": "str",
          "type": "string"
        }
      ],
      "name": "StringTooLong",
      "type": "error"
    },
    {
      "anonymous": false,
      "inputs": [],
      "name": "EIP712DomainChanged",
      "type": "event"
    },
    {
      "inputs": [],
      "name": "DOMAIN_SEPARATOR",
      "outputs": [
        {
          "internalType": "bytes32",
          "name": "",
          "type": "bytes32"
        }
      ],
      "stateMutability": "view",
      "type": "function"
    },
    {
      "inputs": [],
      "name": "eip712Domain",
      "outputs": [
        {
          "internalType": "bytes1",
          "name": "fields",
          "type": "bytes1"
        },
        {
          "internalType": "string",
          "name": "name",
          "type": "string"
        },
        {
          "internalType": "string",
          "name": "version",
          "type": "string"
        },
        {
          "internalType": "uint256",
          "name": "chainId",
          "type": "uint256"
        },
        {
          "internalType": "address",
          "name": "verifyingContract",
          "type": "address"
        },
        {
          "internalType": "bytes32",
          "name": "salt",
          "type": "bytes32"
        },
        {
          "internalType": "uint256[]",
          "name": "extensions",
          "type": "uint256[]"
        }
      ],
      "stateMutability": "view",
      "type": "function"
    },
    {
      "inputs": [
        {
          "internalType": "address",
          "name": "tokenAddress",
          "type": "address"
        },
        {
          "internalType": "address",
          "name": "owner",
          "type": "address"
        },
        {
          "internalType": "address",
          "name": "to",
          "type": "address"
        },
        {
          "internalType": "uint256",
          "name": "value",
          "type": "uint256"
        },
        {
          "internalType": "uint256",
          "name": "deadline",
          "type": "uint256"
        },
        {
          "internalType": "uint8",
          "name": "v",
          "type": "uint8"
        },
        {
          "internalType": "bytes32",
          "name": "r",
          "type": "bytes32"
        },
        {
          "internalType": "bytes32",
          "name": "s",
          "type": "bytes32"
        }
      ],
      "name": "executeMetaTransaction",
      "outputs": [],
      "stateMutability": "nonpayable",
      "type": "function"
    },
    {
      "inputs": [
        {
          "internalType": "address",
          "name": "owner",
          "type": "address"
        }
      ],
      "name": "nonces",
      "outputs": [
        {
          "internalType": "uint256",
          "name": "",
          "type": "uint256"
        }
      ],
      "stateMutability": "view",
      "type": "function"
    }
  ],
  "bytecode": "0x6101606040523480156200001257600080fd5b5060405162001f3638038062001f368339818101604052810190620000389190620003e5565b806040518060400160405280600181526020017f3100000000000000000000000000000000000000000000000000000000000000815250620000856000836200012660201b90919060201c565b6101208181525050620000a36001826200012660201b90919060201c565b6101408181525050818051906020012060e08181525050808051906020012061010081815250504660a08181525050620000e26200017e60201b60201c565b608081815250503073ffffffffffffffffffffffffffffffffffffffff1660c08173ffffffffffffffffffffffffffffffffffffffff16815250505050506200094e565b60006020835110156200014c576200014483620001db60201b60201c565b905062000178565b826200015e836200024860201b60201c565b60000190816200016f919062000681565b5060ff60001b90505b92915050565b60007f8b73c3c69bb8fe3d512ecc4cf759cc79239f7b179b0ffacaa9a75d522b39400f60e051610100514630604051602001620001c0959493929190620007d9565b60405160208183030381529060405280519060200120905090565b600080829050601f815111156200022b57826040517f305a27a900000000000000000000000000000000000000000000000000000000815260040162000222919062000888565b60405180910390fd5b8051816200023990620008de565b60001c1760001b915050919050565b6000819050919050565b6000604051905090565b600080fd5b600080fd5b600080fd5b600080fd5b6000601f19601f8301169050919050565b7f4e487b7100000000000000000000000000000000000000000000000000000000600052604160045260246000fd5b620002bb8262000270565b810181811067ffffffffffffffff82111715620002dd57620002dc62000281565b5b80604052505050565b6000620002f262000252565b9050620003008282620002b0565b919050565b600067ffffffffffffffff82111562000323576200032262000281565b5b6200032e8262000270565b9050602081019050919050565b60005b838110156200035b5780820151818401526020810190506200033e565b60008484015250505050565b60006200037e620003788462000305565b620002e6565b9050828152602081018484840111156200039d576200039c6200026b565b5b620003aa8482856200033b565b509392505050565b600082601f830112620003ca57620003c962000266565b5b8151620003dc84826020860162000367565b91505092915050565b600060208284031215620003fe57620003fd6200025c565b5b600082015167ffffffffffffffff8111156200041f576200041e62000261565b5b6200042d84828501620003b2565b91505092915050565b600081519050919050565b7f4e487b7100000000000000000000000000000000000000000000000000000000600052602260045260246000fd5b600060028204905060018216806200048957607f821691505b6020821081036200049f576200049e62000441565b5b50919050565b60008190508160005260206000209050919050565b60006020601f8301049050919050565b600082821b905092915050565b600060088302620005097fffffffffffffffffffffffffffffffffffffffffffffffffffffffffffffffff82620004ca565b620005158683620004ca565b95508019841693508086168417925050509392505050565b6000819050919050565b6000819050919050565b6000620005626200055c62000556846200052d565b62000537565b6200052d565b9050919050565b6000819050919050565b6200057e8362000541565b620005966200058d8262000569565b848454620004d7565b825550505050565b600090565b620005ad6200059e565b620005ba81848462000573565b505050565b5b81811015620005e257620005d6600082620005a3565b600181019050620005c0565b5050565b601f8211156200063157620005fb81620004a5565b6200060684620004ba565b8101602085101562000616578190505b6200062e6200062585620004ba565b830182620005bf565b50505b505050565b600082821c905092915050565b6000620006566000198460080262000636565b1980831691505092915050565b600062000671838362000643565b9150826002028217905092915050565b6200068c8262000436565b67ffffffffffffffff811115620006a857620006a762000281565b5b620006b4825462000470565b620006c1828285620005e6565b600060209050601f831160018114620006f95760008415620006e4578287015190505b620006f0858262000663565b86555062000760565b601f1984166200070986620004a5565b60005b8281101562000733578489015182556001820191506020850194506020810190506200070c565b868310156200075357848901516200074f601f89168262000643565b8355505b6001600288020188555050505b505050505050565b6000819050919050565b6200077d8162000768565b82525050565b6200078e816200052d565b82525050565b600073ffffffffffffffffffffffffffffffffffffffff82169050919050565b6000620007c18262000794565b9050919050565b620007d381620007b4565b82525050565b600060a082019050620007f0600083018862000772565b620007ff602083018762000772565b6200080e604083018662000772565b6200081d606083018562000783565b6200082c6080830184620007c8565b9695505050505050565b600082825260208201905092915050565b6000620008548262000436565b62000860818562000836565b9350620008728185602086016200033b565b6200087d8162000270565b840191505092915050565b60006020820190508181036000830152620008a4818462000847565b905092915050565b600081519050919050565b6000819050602082019050919050565b6000620008d5825162000768565b80915050919050565b6000620008eb82620008ac565b82620008f784620008b7565b90506200090481620008c7565b925060208210156200094757620009427fffffffffffffffffffffffffffffffffffffffffffffffffffffffffffffffff83602003600802620004ca565b831692505b5050919050565b60805160a05160c05160e05161010051610120516101405161158d620009a96000396000610185015260006101510152600061075801526000610737015260006104fe015260006105540152600061057d015261158d6000f3fe608060405234801561001057600080fd5b506004361061004c5760003560e01c80633644e515146100515780637ecebe001461006f57806384b0196e1461009f578063ed075452146100c3575b600080fd5b6100596100df565b6040516100669190610b24565b60405180910390f35b61008960048036038101906100849190610ba2565b6100ee565b6040516100969190610be8565b60405180910390f35b6100a761013e565b6040516100ba9796959493929190610d9b565b60405180910390f35b6100dd60048036038101906100d89190610eb0565b610240565b005b60006100e96104fa565b905090565b6000610137600260008473ffffffffffffffffffffffffffffffffffffffff1673ffffffffffffffffffffffffffffffffffffffff1681526020019081526020016000206105b1565b9050919050565b60006060806000806000606061017e60007f00000000000000000000000000000000000000000000000000000000000000006105bf90919063ffffffff16565b6101b260017f00000000000000000000000000000000000000000000000000000000000000006105bf90919063ffffffff16565b46306000801b600067ffffffffffffffff8111156101d3576101d2610f66565b5b6040519080825280602002602001820160405280156102015781602001602082028036833780820191505090505b507f0f00000000000000000000000000000000000000000000000000000000000000959493929190965096509650965096509650965090919293949596565b83421115610283576040517f08c379a000000000000000000000000000000000000000000000000000000000815260040161027a90611007565b60405180910390fd5b60007f6e71edae12b1b97f4d1f60370fef10105fa2faae0126114a169c64845d6126c98830886102b28c61066f565b896040516020016102c896959493929190611027565b60405160208183030381529060405280519060200120905060006102eb826106cd565b905060006102fb828787876106e7565b90508973ffffffffffffffffffffffffffffffffffffffff168173ffffffffffffffffffffffffffffffffffffffff161461036b576040517f08c379a0000000000000000000000000000000000000000000000000000000008152600401610362906110fa565b60405180910390fd5b60008b90508073ffffffffffffffffffffffffffffffffffffffff1663095ea7b3308b6040518363ffffffff1660e01b81526004016103ab92919061111a565b6020604051808303816000875af11580156103ca573d6000803e3d6000fd5b505050506040513d601f19601f820116820180604052508101906103ee919061117b565b61042d576040517f08c379a0000000000000000000000000000000000000000000000000000000008152600401610424906111f4565b60405180910390fd5b8073ffffffffffffffffffffffffffffffffffffffff166323b872dd8c8c8c6040518463ffffffff1660e01b815260040161046a93929190611214565b6020604051808303816000875af1158015610489573d6000803e3d6000fd5b505050506040513d601f19601f820116820180604052508101906104ad919061117b565b6104ec576040517f08c379a00000000000000000000000000000000000000000000000000000000081526004016104e390611297565b60405180910390fd5b505050505050505050505050565b60007f000000000000000000000000000000000000000000000000000000000000000073ffffffffffffffffffffffffffffffffffffffff163073ffffffffffffffffffffffffffffffffffffffff1614801561057657507f000000000000000000000000000000000000000000000000000000000000000046145b156105a3577f000000000000000000000000000000000000000000000000000000000000000090506105ae565b6105ab610712565b90505b90565b600081600001549050919050565b606060ff60001b83146105dc576105d5836107a8565b9050610669565b8180546105e8906112e6565b80601f0160208091040260200160405190810160405280929190818152602001828054610614906112e6565b80156106615780601f1061063657610100808354040283529160200191610661565b820191906000526020600020905b81548152906001019060200180831161064457829003601f168201915b505050505090505b92915050565b600080600260008473ffffffffffffffffffffffffffffffffffffffff1673ffffffffffffffffffffffffffffffffffffffff16815260200190815260200160002090506106bc816105b1565b91506106c78161081c565b50919050565b60006106e06106da6104fa565b83610832565b9050919050565b60008060006106f887878787610873565b9150915061070581610955565b8192505050949350505050565b60007f8b73c3c69bb8fe3d512ecc4cf759cc79239f7b179b0ffacaa9a75d522b39400f7f00000000000000000000000000000000000000000000000000000000000000007f0000000000000000000000000000000000000000000000000000000000000000463060405160200161078d959493929190611317565b60405160208183030381529060405280519060200120905090565b606060006107b583610abb565b90506000602067ffffffffffffffff8111156107d4576107d3610f66565b5b6040519080825280601f01601f1916602001820160405280156108065781602001600182028036833780820191505090505b5090508181528360208201528092505050919050565b6001816000016000828254019250508190555050565b60006040517f190100000000000000000000000000000000000000000000000000000000000081528360028201528260228201526042812091505092915050565b6000807f7fffffffffffffffffffffffffffffff5d576e7357a4501ddfe92f46681b20a08360001c11156108ae57600060039150915061094c565b6000600187878787604051600081526020016040526040516108d39493929190611379565b6020604051602081039080840390855afa1580156108f5573d6000803e3d6000fd5b505050602060405103519050600073ffffffffffffffffffffffffffffffffffffffff168173ffffffffffffffffffffffffffffffffffffffff16036109435760006001925092505061094c565b80600092509250505b94509492505050565b60006004811115610969576109686113be565b5b81600481111561097c5761097b6113be565b5b0315610ab85760016004811115610996576109956113be565b5b8160048111156109a9576109a86113be565b5b036109e9576040517f08c379a00000000000000000000000000000000000000000000000000000000081526004016109e090611439565b60405180910390fd5b600260048111156109fd576109fc6113be565b5b816004811115610a1057610a0f6113be565b5b03610a50576040517f08c379a0000000000000000000000000000000000000000000000000000000008152600401610a47906114a5565b60405180910390fd5b60036004811115610a6457610a636113be565b5b816004811115610a7757610a766113be565b5b03610ab7576040517f08c379a0000000000000000000000000000000000000000000000000000000008152600401610aae90611537565b60405180910390fd5b5b50565b60008060ff8360001c169050601f811115610b02576040517fb3512b0c00000000000000000000000000000000000000000000000000000000815260040160405180910390fd5b80915050919050565b6000819050919050565b610b1e81610b0b565b82525050565b6000602082019050610b396000830184610b15565b92915050565b600080fd5b600073ffffffffffffffffffffffffffffffffffffffff82169050919050565b6000610b6f82610b44565b9050919050565b610b7f81610b64565b8114610b8a57600080fd5b50565b600081359050610b9c81610b76565b92915050565b600060208284031215610bb857610bb7610b3f565b5b6000610bc684828501610b8d565b91505092915050565b6000819050919050565b610be281610bcf565b82525050565b6000602082019050610bfd6000830184610bd9565b92915050565b60007fff0000000000000000000000000000000000000000000000000000000000000082169050919050565b610c3881610c03565b82525050565b600081519050919050565b600082825260208201905092915050565b60005b83811015610c78578082015181840152602081019050610c5d565b60008484015250505050565b6000601f19601f8301169050919050565b6000610ca082610c3e565b610caa8185610c49565b9350610cba818560208601610c5a565b610cc381610c84565b840191505092915050565b610cd781610b64565b82525050565b600081519050919050565b600082825260208201905092915050565b6000819050602082019050919050565b610d1281610bcf565b82525050565b6000610d248383610d09565b60208301905092915050565b6000602082019050919050565b6000610d4882610cdd565b610d528185610ce8565b9350610d5d83610cf9565b8060005b83811015610d8e578151610d758882610d18565b9750610d8083610d30565b925050600181019050610d61565b5085935050505092915050565b600060e082019050610db0600083018a610c2f565b8181036020830152610dc28189610c95565b90508181036040830152610dd68188610c95565b9050610de56060830187610bd9565b610df26080830186610cce565b610dff60a0830185610b15565b81810360c0830152610e118184610d3d565b905098975050505050505050565b610e2881610bcf565b8114610e3357600080fd5b50565b600081359050610e4581610e1f565b92915050565b600060ff82169050919050565b610e6181610e4b565b8114610e6c57600080fd5b50565b600081359050610e7e81610e58565b92915050565b610e8d81610b0b565b8114610e9857600080fd5b50565b600081359050610eaa81610e84565b92915050565b600080600080600080600080610100898b031215610ed157610ed0610b3f565b5b6000610edf8b828c01610b8d565b9850506020610ef08b828c01610b8d565b9750506040610f018b828c01610b8d565b9650506060610f128b828c01610e36565b9550506080610f238b828c01610e36565b94505060a0610f348b828c01610e6f565b93505060c0610f458b828c01610e9b565b92505060e0610f568b828c01610e9b565b9150509295985092959890939650565b7f4e487b7100000000000000000000000000000000000000000000000000000000600052604160045260246000fd5b7f4d6574615472616e73616374696f6e3a206578706972656420646561646c696e60008201527f6500000000000000000000000000000000000000000000000000000000000000602082015250565b6000610ff1602183610c49565b9150610ffc82610f95565b604082019050919050565b6000602082019050818103600083015261102081610fe4565b9050919050565b600060c08201905061103c6000830189610b15565b6110496020830188610cce565b6110566040830187610cce565b6110636060830186610bd9565b6110706080830185610bd9565b61107d60a0830184610bd9565b979650505050505050565b7f4d6574615472616e73616374696f6e3a20696e76616c6964207369676e61747560008201527f7265000000000000000000000000000000000000000000000000000000000000602082015250565b60006110e4602283610c49565b91506110ef82611088565b604082019050919050565b60006020820190508181036000830152611113816110d7565b9050919050565b600060408201905061112f6000830185610cce565b61113c6020830184610bd9565b9392505050565b60008115159050919050565b61115881611143565b811461116357600080fd5b50565b6000815190506111758161114f565b92915050565b60006020828403121561119157611190610b3f565b5b600061119f84828501611166565b91505092915050565b7f4d6574615472616e73616374696f6e3a20417070726f76616c206661696c6564600082015250565b60006111de602083610c49565b91506111e9826111a8565b602082019050919050565b6000602082019050818103600083015261120d816111d1565b9050919050565b60006060820190506112296000830186610cce565b6112366020830185610cce565b6112436040830184610bd9565b949350505050565b7f4d6574615472616e73616374696f6e3a205472616e73666572206661696c6564600082015250565b6000611281602083610c49565b915061128c8261124b565b602082019050919050565b600060208201905081810360008301526112b081611274565b9050919050565b7f4e487b7100000000000000000000000000000000000000000000000000000000600052602260045260246000fd5b600060028204905060018216806112fe57607f821691505b602082108103611311576113106112b7565b5b50919050565b600060a08201905061132c6000830188610b15565b6113396020830187610b15565b6113466040830186610b15565b6113536060830185610bd9565b6113606080830184610cce565b9695505050505050565b61137381610e4b565b82525050565b600060808201905061138e6000830187610b15565b61139b602083018661136a565b6113a86040830185610b15565b6113b56060830184610b15565b95945050505050565b7f4e487b7100000000000000000000000000000000000000000000000000000000600052602160045260246000fd5b7f45434453413a20696e76616c6964207369676e61747572650000000000000000600082015250565b6000611423601883610c49565b915061142e826113ed565b602082019050919050565b6000602082019050818103600083015261145281611416565b9050919050565b7f45434453413a20696e76616c6964207369676e6174757265206c656e67746800600082015250565b600061148f601f83610c49565b915061149a82611459565b602082019050919050565b600060208201905081810360008301526114be81611482565b9050919050565b7f45434453413a20696e76616c6964207369676e6174757265202773272076616c60008201527f7565000000000000000000000000000000000000000000000000000000000000602082015250565b6000611521602283610c49565b915061152c826114c5565b604082019050919050565b6000602082019050818103600083015261155081611514565b905091905056fea264697066735822122054483b5089920ae295c757558ac17060e42d79dbb1f8f01813706769d23b5a6164736f6c63430008130033",
  "linkReferences": {},
  "deployedLinkReferences": {}
}