{
  "_format": "hh-sol-artifact-1",
  "contractName": "MashToken",
  "sourceName": "contracts/ERC20.sol",
  "abi": [
    {
      "inputs": [
        {
          "internalType": "string",
          "name": "_name",
          "type": "string"
        },
        {
          "internalType": "string",
          "name": "_symbol",
          "type": "string"
        },
        {
          "internalType": "address",
          "name": "receiver",
          "type": "address"
        },
        {
          "internalType": "uint8",
          "name": "__decimals",
          "type": "uint8"
        },
        {
          "internalType": "uint256",
          "name": "_cap",
          "type": "uint256"
        },
        {
          "internalType": "uint256",
          "name": "initialBalance",
          "type": "uint256"
        }
      ],
      "stateMutability": "nonpayable",
      "type": "constructor"
    },
    {
      "inputs": [],
      "name": "InvalidShortString",
      "type": "error"
    },
    {
      "inputs": [
        {
          "internalType": "string",
          "name": "str",
          "type": "string"
        }
      ],
      "name": "StringTooLong",
      "type": "error"
    },
    {
      "anonymous": false,
      "inputs": [
        {
          "indexed": true,
          "internalType": "address",
          "name": "owner",
          "type": "address"
        },
        {
          "indexed": true,
          "internalType": "address",
          "name": "spender",
          "type": "address"
        },
        {
          "indexed": false,
          "internalType": "uint256",
          "name": "value",
          "type": "uint256"
        }
      ],
      "name": "Approval",
      "type": "event"
    },
    {
      "anonymous": false,
      "inputs": [],
      "name": "EIP712DomainChanged",
      "type": "event"
    },
    {
      "anonymous": false,
      "inputs": [
        {
          "indexed": true,
          "internalType": "address",
          "name": "previousOwner",
          "type": "address"
        },
        {
          "indexed": true,
          "internalType": "address",
          "name": "newOwner",
          "type": "address"
        }
      ],
      "name": "OwnershipTransferred",
      "type": "event"
    },
    {
      "anonymous": false,
      "inputs": [
        {
          "indexed": true,
          "internalType": "address",
          "name": "from",
          "type": "address"
        },
        {
          "indexed": true,
          "internalType": "address",
          "name": "to",
          "type": "address"
        },
        {
          "indexed": false,
          "internalType": "uint256",
          "name": "value",
          "type": "uint256"
        }
      ],
      "name": "Transfer",
      "type": "event"
    },
    {
      "inputs": [],
      "name": "DOMAIN_SEPARATOR",
      "outputs": [
        {
          "internalType": "bytes32",
          "name": "",
          "type": "bytes32"
        }
      ],
      "stateMutability": "view",
      "type": "function"
    },
    {
      "inputs": [
        {
          "internalType": "address",
          "name": "owner",
          "type": "address"
        },
        {
          "internalType": "address",
          "name": "spender",
          "type": "address"
        }
      ],
      "name": "allowance",
      "outputs": [
        {
          "internalType": "uint256",
          "name": "",
          "type": "uint256"
        }
      ],
      "stateMutability": "view",
      "type": "function"
    },
    {
      "inputs": [
        {
          "internalType": "address",
          "name": "spender",
          "type": "address"
        },
        {
          "internalType": "uint256",
          "name": "amount",
          "type": "uint256"
        }
      ],
      "name": "approve",
      "outputs": [
        {
          "internalType": "bool",
          "name": "",
          "type": "bool"
        }
      ],
      "stateMutability": "nonpayable",
      "type": "function"
    },
    {
      "inputs": [
        {
          "internalType": "address",
          "name": "account",
          "type": "address"
        }
      ],
      "name": "balanceOf",
      "outputs": [
        {
          "internalType": "uint256",
          "name": "",
          "type": "uint256"
        }
      ],
      "stateMutability": "view",
      "type": "function"
    },
    {
      "inputs": [
        {
          "internalType": "uint256",
          "name": "amount",
          "type": "uint256"
        }
      ],
      "name": "burn",
      "outputs": [],
      "stateMutability": "nonpayable",
      "type": "function"
    },
    {
      "inputs": [
        {
          "internalType": "address",
          "name": "account",
          "type": "address"
        },
        {
          "internalType": "uint256",
          "name": "amount",
          "type": "uint256"
        }
      ],
      "name": "burnFrom",
      "outputs": [],
      "stateMutability": "nonpayable",
      "type": "function"
    },
    {
      "inputs": [],
      "name": "cap",
      "outputs": [
        {
          "internalType": "uint256",
          "name": "",
          "type": "uint256"
        }
      ],
      "stateMutability": "view",
      "type": "function"
    },
    {
      "inputs": [],
      "name": "decimals",
      "outputs": [
        {
          "internalType": "uint8",
          "name": "",
          "type": "uint8"
        }
      ],
      "stateMutability": "view",
      "type": "function"
    },
    {
      "inputs": [
        {
          "internalType": "address",
          "name": "spender",
          "type": "address"
        },
        {
          "internalType": "uint256",
          "name": "subtractedValue",
          "type": "uint256"
        }
      ],
      "name": "decreaseAllowance",
      "outputs": [
        {
          "internalType": "bool",
          "name": "",
          "type": "bool"
        }
      ],
      "stateMutability": "nonpayable",
      "type": "function"
    },
    {
      "inputs": [],
      "name": "eip712Domain",
      "outputs": [
        {
          "internalType": "bytes1",
          "name": "fields",
          "type": "bytes1"
        },
        {
          "internalType": "string",
          "name": "name",
          "type": "string"
        },
        {
          "internalType": "string",
          "name": "version",
          "type": "string"
        },
        {
          "internalType": "uint256",
          "name": "chainId",
          "type": "uint256"
        },
        {
          "internalType": "address",
          "name": "verifyingContract",
          "type": "address"
        },
        {
          "internalType": "bytes32",
          "name": "salt",
          "type": "bytes32"
        },
        {
          "internalType": "uint256[]",
          "name": "extensions",
          "type": "uint256[]"
        }
      ],
      "stateMutability": "view",
      "type": "function"
    },
    {
      "inputs": [
        {
          "internalType": "address",
          "name": "spender",
          "type": "address"
        },
        {
          "internalType": "uint256",
          "name": "addedValue",
          "type": "uint256"
        }
      ],
      "name": "increaseAllowance",
      "outputs": [
        {
          "internalType": "bool",
          "name": "",
          "type": "bool"
        }
      ],
      "stateMutability": "nonpayable",
      "type": "function"
    },
    {
      "inputs": [
        {
          "internalType": "address",
          "name": "to",
          "type": "address"
        },
        {
          "internalType": "uint256",
          "name": "value",
          "type": "uint256"
        }
      ],
      "name": "mint",
      "outputs": [],
      "stateMutability": "nonpayable",
      "type": "function"
    },
    {
      "inputs": [],
      "name": "name",
      "outputs": [
        {
          "internalType": "string",
          "name": "",
          "type": "string"
        }
      ],
      "stateMutability": "view",
      "type": "function"
    },
    {
      "inputs": [
        {
          "internalType": "address",
          "name": "owner",
          "type": "address"
        }
      ],
      "name": "nonces",
      "outputs": [
        {
          "internalType": "uint256",
          "name": "",
          "type": "uint256"
        }
      ],
      "stateMutability": "view",
      "type": "function"
    },
    {
      "inputs": [],
      "name": "owner",
      "outputs": [
        {
          "internalType": "address",
          "name": "",
          "type": "address"
        }
      ],
      "stateMutability": "view",
      "type": "function"
    },
    {
      "inputs": [
        {
          "internalType": "address",
          "name": "owner",
          "type": "address"
        },
        {
          "internalType": "address",
          "name": "spender",
          "type": "address"
        },
        {
          "internalType": "uint256",
          "name": "value",
          "type": "uint256"
        },
        {
          "internalType": "uint256",
          "name": "deadline",
          "type": "uint256"
        },
        {
          "internalType": "uint8",
          "name": "v",
          "type": "uint8"
        },
        {
          "internalType": "bytes32",
          "name": "r",
          "type": "bytes32"
        },
        {
          "internalType": "bytes32",
          "name": "s",
          "type": "bytes32"
        }
      ],
      "name": "permit",
      "outputs": [],
      "stateMutability": "nonpayable",
      "type": "function"
    },
    {
      "inputs": [],
      "name": "renounceOwnership",
      "outputs": [],
      "stateMutability": "nonpayable",
      "type": "function"
    },
    {
      "inputs": [],
      "name": "symbol",
      "outputs": [
        {
          "internalType": "string",
          "name": "",
          "type": "string"
        }
      ],
      "stateMutability": "view",
      "type": "function"
    },
    {
      "inputs": [],
      "name": "totalSupply",
      "outputs": [
        {
          "internalType": "uint256",
          "name": "",
          "type": "uint256"
        }
      ],
      "stateMutability": "view",
      "type": "function"
    },
    {
      "inputs": [
        {
          "internalType": "address",
          "name": "to",
          "type": "address"
        },
        {
          "internalType": "uint256",
          "name": "amount",
          "type": "uint256"
        }
      ],
      "name": "transfer",
      "outputs": [
        {
          "internalType": "bool",
          "name": "",
          "type": "bool"
        }
      ],
      "stateMutability": "nonpayable",
      "type": "function"
    },
    {
      "inputs": [
        {
          "internalType": "address",
          "name": "from",
          "type": "address"
        },
        {
          "internalType": "address",
          "name": "to",
          "type": "address"
        },
        {
          "internalType": "uint256",
          "name": "amount",
          "type": "uint256"
        }
      ],
      "name": "transferFrom",
      "outputs": [
        {
          "internalType": "bool",
          "name": "",
          "type": "bool"
        }
      ],
      "stateMutability": "nonpayable",
      "type": "function"
    },
    {
      "inputs": [
        {
          "internalType": "address",
          "name": "newOwner",
          "type": "address"
        }
      ],
      "name": "transferOwnership",
      "outputs": [],
      "stateMutability": "nonpayable",
      "type": "function"
    }
  ],
  "bytecode": "0x6101806040523480156200001257600080fd5b5060405162003cfe38038062003cfe833981810160405281019062000038919062000892565b8186806040518060400160405280600181526020017f31000000000000000000000000000000000000000000000000000000000000008152508989816003908162000084919062000bad565b50806004908162000096919062000bad565b505050620000af600583620001fe60201b90919060201c565b6101208181525050620000cd600682620001fe60201b90919060201c565b6101408181525050818051906020012060e08181525050808051906020012061010081815250504660a081815250506200010c6200025660201b60201c565b608081815250503073ffffffffffffffffffffffffffffffffffffffff1660c08173ffffffffffffffffffffffffffffffffffffffff16815250505050506000811162000190576040517f08c379a0000000000000000000000000000000000000000000000000000000008152600401620001879062000cf5565b60405180910390fd5b80610160818152505050620001ba620001ae620002b360201b60201c565b620002bb60201b60201c565b82600960146101000a81548160ff021916908360ff1602179055506000811115620001f257620001f184826200038160201b60201c565b5b50505050505062001023565b600060208351101562000224576200021c836200039760201b60201c565b905062000250565b8262000236836200040460201b60201c565b600001908162000247919062000bad565b5060ff60001b90505b92915050565b60007f8b73c3c69bb8fe3d512ecc4cf759cc79239f7b179b0ffacaa9a75d522b39400f60e0516101005146306040516020016200029895949392919062000d54565b60405160208183030381529060405280519060200120905090565b600033905090565b6000600960009054906101000a900473ffffffffffffffffffffffffffffffffffffffff16905081600960006101000a81548173ffffffffffffffffffffffffffffffffffffffff021916908373ffffffffffffffffffffffffffffffffffffffff1602179055508173ffffffffffffffffffffffffffffffffffffffff168173ffffffffffffffffffffffffffffffffffffffff167f8be0079c531659141344cd1fd0a4f28419497f9722a3daafe3b4186f6b6457e060405160405180910390a35050565b6200039382826200040e60201b60201c565b5050565b600080829050601f81511115620003e757826040517f305a27a9000000000000000000000000000000000000000000000000000000008152600401620003de919062000df2565b60405180910390fd5b805181620003f59062000e48565b60001c1760001b915050919050565b6000819050919050565b6200041e6200049560201b60201c565b816200042f620004a060201b60201c565b6200043b919062000ee7565b11156200047f576040517f08c379a0000000000000000000000000000000000000000000000000000000008152600401620004769062000f72565b60405180910390fd5b620004918282620004aa60201b60201c565b5050565b600061016051905090565b6000600254905090565b600073ffffffffffffffffffffffffffffffffffffffff168273ffffffffffffffffffffffffffffffffffffffff16036200051c576040517f08c379a0000000000000000000000000000000000000000000000000000000008152600401620005139062000fe4565b60405180910390fd5b62000530600083836200061760201b60201c565b806002600082825462000544919062000ee7565b92505081905550806000808473ffffffffffffffffffffffffffffffffffffffff1673ffffffffffffffffffffffffffffffffffffffff168152602001908152602001600020600082825401925050819055508173ffffffffffffffffffffffffffffffffffffffff16600073ffffffffffffffffffffffffffffffffffffffff167fddf252ad1be2c89b69c2b068fc378daa952ba7f163c4a11628f55a4df523b3ef83604051620005f7919062001006565b60405180910390a362000613600083836200061c60201b60201c565b5050565b505050565b505050565b6000604051905090565b600080fd5b600080fd5b600080fd5b600080fd5b6000601f19601f8301169050919050565b7f4e487b7100000000000000000000000000000000000000000000000000000000600052604160045260246000fd5b6200068a826200063f565b810181811067ffffffffffffffff82111715620006ac57620006ab62000650565b5b80604052505050565b6000620006c162000621565b9050620006cf82826200067f565b919050565b600067ffffffffffffffff821115620006f257620006f162000650565b5b620006fd826200063f565b9050602081019050919050565b60005b838110156200072a5780820151818401526020810190506200070d565b60008484015250505050565b60006200074d6200074784620006d4565b620006b5565b9050828152602081018484840111156200076c576200076b6200063a565b5b620007798482856200070a565b509392505050565b600082601f83011262000799576200079862000635565b5b8151620007ab84826020860162000736565b91505092915050565b600073ffffffffffffffffffffffffffffffffffffffff82169050919050565b6000620007e182620007b4565b9050919050565b620007f381620007d4565b8114620007ff57600080fd5b50565b6000815190506200081381620007e8565b92915050565b600060ff82169050919050565b620008318162000819565b81146200083d57600080fd5b50565b600081519050620008518162000826565b92915050565b6000819050919050565b6200086c8162000857565b81146200087857600080fd5b50565b6000815190506200088c8162000861565b92915050565b60008060008060008060c08789031215620008b257620008b16200062b565b5b600087015167ffffffffffffffff811115620008d357620008d262000630565b5b620008e189828a0162000781565b965050602087015167ffffffffffffffff81111562000905576200090462000630565b5b6200091389828a0162000781565b95505060406200092689828a0162000802565b94505060606200093989828a0162000840565b93505060806200094c89828a016200087b565b92505060a06200095f89828a016200087b565b9150509295509295509295565b600081519050919050565b7f4e487b7100000000000000000000000000000000000000000000000000000000600052602260045260246000fd5b60006002820490506001821680620009bf57607f821691505b602082108103620009d557620009d462000977565b5b50919050565b60008190508160005260206000209050919050565b60006020601f8301049050919050565b600082821b905092915050565b60006008830262000a3f7fffffffffffffffffffffffffffffffffffffffffffffffffffffffffffffffff8262000a00565b62000a4b868362000a00565b95508019841693508086168417925050509392505050565b6000819050919050565b600062000a8e62000a8862000a828462000857565b62000a63565b62000857565b9050919050565b6000819050919050565b62000aaa8362000a6d565b62000ac262000ab98262000a95565b84845462000a0d565b825550505050565b600090565b62000ad962000aca565b62000ae681848462000a9f565b505050565b5b8181101562000b0e5762000b0260008262000acf565b60018101905062000aec565b5050565b601f82111562000b5d5762000b2781620009db565b62000b3284620009f0565b8101602085101562000b42578190505b62000b5a62000b5185620009f0565b83018262000aeb565b50505b505050565b600082821c905092915050565b600062000b826000198460080262000b62565b1980831691505092915050565b600062000b9d838362000b6f565b9150826002028217905092915050565b62000bb8826200096c565b67ffffffffffffffff81111562000bd45762000bd362000650565b5b62000be08254620009a6565b62000bed82828562000b12565b600060209050601f83116001811462000c25576000841562000c10578287015190505b62000c1c858262000b8f565b86555062000c8c565b601f19841662000c3586620009db565b60005b8281101562000c5f5784890151825560018201915060208501945060208101905062000c38565b8683101562000c7f578489015162000c7b601f89168262000b6f565b8355505b6001600288020188555050505b505050505050565b600082825260208201905092915050565b7f45524332304361707065643a2063617020697320300000000000000000000000600082015250565b600062000cdd60158362000c94565b915062000cea8262000ca5565b602082019050919050565b6000602082019050818103600083015262000d108162000cce565b9050919050565b6000819050919050565b62000d2c8162000d17565b82525050565b62000d3d8162000857565b82525050565b62000d4e81620007d4565b82525050565b600060a08201905062000d6b600083018862000d21565b62000d7a602083018762000d21565b62000d89604083018662000d21565b62000d98606083018562000d32565b62000da7608083018462000d43565b9695505050505050565b600062000dbe826200096c565b62000dca818562000c94565b935062000ddc8185602086016200070a565b62000de7816200063f565b840191505092915050565b6000602082019050818103600083015262000e0e818462000db1565b905092915050565b600081519050919050565b6000819050602082019050919050565b600062000e3f825162000d17565b80915050919050565b600062000e558262000e16565b8262000e618462000e21565b905062000e6e8162000e31565b9250602082101562000eb15762000eac7fffffffffffffffffffffffffffffffffffffffffffffffffffffffffffffffff8360200360080262000a00565b831692505b5050919050565b7f4e487b7100000000000000000000000000000000000000000000000000000000600052601160045260246000fd5b600062000ef48262000857565b915062000f018362000857565b925082820190508082111562000f1c5762000f1b62000eb8565b5b92915050565b7f45524332304361707065643a2063617020657863656564656400000000000000600082015250565b600062000f5a60198362000c94565b915062000f678262000f22565b602082019050919050565b6000602082019050818103600083015262000f8d8162000f4b565b9050919050565b7f45524332303a206d696e7420746f20746865207a65726f206164647265737300600082015250565b600062000fcc601f8362000c94565b915062000fd98262000f94565b602082019050919050565b6000602082019050818103600083015262000fff8162000fbd565b9050919050565b60006020820190506200101d600083018462000d32565b92915050565b60805160a05160c05160e05161010051610120516101405161016051612c7562001089600039600061055c01526000610703015260006106cf015260006115ba01526000611599015260006110370152600061108d015260006110b60152612c756000f3fe608060405234801561001057600080fd5b50600436106101425760003560e01c8063715018a6116100b857806395d89b411161007c57806395d89b411461036d578063a457c2d71461038b578063a9059cbb146103bb578063d505accf146103eb578063dd62ed3e14610407578063f2fde38b1461043757610142565b8063715018a6146102d557806379cc6790146102df5780637ecebe00146102fb57806384b0196e1461032b5780638da5cb5b1461034f57610142565b8063355274ea1161010a578063355274ea146102015780633644e5151461021f578063395093511461023d57806340c10f191461026d57806342966c681461028957806370a08231146102a557610142565b806306fdde0314610147578063095ea7b31461016557806318160ddd1461019557806323b872dd146101b3578063313ce567146101e3575b600080fd5b61014f610453565b60405161015c9190611bbd565b60405180910390f35b61017f600480360381019061017a9190611c78565b6104e5565b60405161018c9190611cd3565b60405180910390f35b61019d610508565b6040516101aa9190611cfd565b60405180910390f35b6101cd60048036038101906101c89190611d18565b610512565b6040516101da9190611cd3565b60405180910390f35b6101eb610541565b6040516101f89190611d87565b60405180910390f35b610209610558565b6040516102169190611cfd565b60405180910390f35b610227610580565b6040516102349190611dbb565b60405180910390f35b61025760048036038101906102529190611c78565b61058f565b6040516102649190611cd3565b60405180910390f35b61028760048036038101906102829190611c78565b6105c6565b005b6102a3600480360381019061029e9190611dd6565b6105dc565b005b6102bf60048036038101906102ba9190611e03565b6105f0565b6040516102cc9190611cfd565b60405180910390f35b6102dd610638565b005b6102f960048036038101906102f49190611c78565b61064c565b005b61031560048036038101906103109190611e03565b61066c565b6040516103229190611cfd565b60405180910390f35b6103336106bc565b6040516103469796959493929190611f38565b60405180910390f35b6103576107be565b6040516103649190611fbc565b60405180910390f35b6103756107e8565b6040516103829190611bbd565b60405180910390f35b6103a560048036038101906103a09190611c78565b61087a565b6040516103b29190611cd3565b60405180910390f35b6103d560048036038101906103d09190611c78565b6108f1565b6040516103e29190611cd3565b60405180910390f35b6104056004803603810190610400919061202f565b610914565b005b610421600480360381019061041c91906120d1565b610a56565b60405161042e9190611cfd565b60405180910390f35b610451600480360381019061044c9190611e03565b610add565b005b60606003805461046290612140565b80601f016020809104026020016040519081016040528092919081815260200182805461048e90612140565b80156104db5780601f106104b0576101008083540402835291602001916104db565b820191906000526020600020905b8154815290600101906020018083116104be57829003601f168201915b5050505050905090565b6000806104f0610b60565b90506104fd818585610b68565b600191505092915050565b6000600254905090565b60008061051d610b60565b905061052a858285610d31565b610535858585610dbd565b60019150509392505050565b6000600960149054906101000a900460ff16905090565b60007f0000000000000000000000000000000000000000000000000000000000000000905090565b600061058a611033565b905090565b60008061059a610b60565b90506105bb8185856105ac8589610a56565b6105b691906121a0565b610b68565b600191505092915050565b6105ce6110ea565b6105d88282611168565b5050565b6105ed6105e7610b60565b82611176565b50565b60008060008373ffffffffffffffffffffffffffffffffffffffff1673ffffffffffffffffffffffffffffffffffffffff168152602001908152602001600020549050919050565b6106406110ea565b61064a6000611343565b565b61065e82610658610b60565b83610d31565b6106688282611176565b5050565b60006106b5600760008473ffffffffffffffffffffffffffffffffffffffff1673ffffffffffffffffffffffffffffffffffffffff168152602001908152602001600020611409565b9050919050565b6000606080600080600060606106fc60057f000000000000000000000000000000000000000000000000000000000000000061141790919063ffffffff16565b61073060067f000000000000000000000000000000000000000000000000000000000000000061141790919063ffffffff16565b46306000801b600067ffffffffffffffff811115610751576107506121d4565b5b60405190808252806020026020018201604052801561077f5781602001602082028036833780820191505090505b507f0f00000000000000000000000000000000000000000000000000000000000000959493929190965096509650965096509650965090919293949596565b6000600960009054906101000a900473ffffffffffffffffffffffffffffffffffffffff16905090565b6060600480546107f790612140565b80601f016020809104026020016040519081016040528092919081815260200182805461082390612140565b80156108705780601f1061084557610100808354040283529160200191610870565b820191906000526020600020905b81548152906001019060200180831161085357829003601f168201915b5050505050905090565b600080610885610b60565b905060006108938286610a56565b9050838110156108d8576040517f08c379a00000000000000000000000000000000000000000000000000000000081526004016108cf90612275565b60405180910390fd5b6108e58286868403610b68565b60019250505092915050565b6000806108fc610b60565b9050610909818585610dbd565b600191505092915050565b83421115610957576040517f08c379a000000000000000000000000000000000000000000000000000000000815260040161094e906122e1565b60405180910390fd5b60007f6e71edae12b1b97f4d1f60370fef10105fa2faae0126114a169c64845d6126c98888886109868c6114c7565b8960405160200161099c96959493929190612301565b60405160208183030381529060405280519060200120905060006109bf82611525565b905060006109cf8287878761153f565b90508973ffffffffffffffffffffffffffffffffffffffff168173ffffffffffffffffffffffffffffffffffffffff1614610a3f576040517f08c379a0000000000000000000000000000000000000000000000000000000008152600401610a36906123ae565b60405180910390fd5b610a4a8a8a8a610b68565b50505050505050505050565b6000600160008473ffffffffffffffffffffffffffffffffffffffff1673ffffffffffffffffffffffffffffffffffffffff16815260200190815260200160002060008373ffffffffffffffffffffffffffffffffffffffff1673ffffffffffffffffffffffffffffffffffffffff16815260200190815260200160002054905092915050565b610ae56110ea565b600073ffffffffffffffffffffffffffffffffffffffff168173ffffffffffffffffffffffffffffffffffffffff1603610b54576040517f08c379a0000000000000000000000000000000000000000000000000000000008152600401610b4b90612440565b60405180910390fd5b610b5d81611343565b50565b600033905090565b600073ffffffffffffffffffffffffffffffffffffffff168373ffffffffffffffffffffffffffffffffffffffff1603610bd7576040517f08c379a0000000000000000000000000000000000000000000000000000000008152600401610bce906124d2565b60405180910390fd5b600073ffffffffffffffffffffffffffffffffffffffff168273ffffffffffffffffffffffffffffffffffffffff1603610c46576040517f08c379a0000000000000000000000000000000000000000000000000000000008152600401610c3d90612564565b60405180910390fd5b80600160008573ffffffffffffffffffffffffffffffffffffffff1673ffffffffffffffffffffffffffffffffffffffff16815260200190815260200160002060008473ffffffffffffffffffffffffffffffffffffffff1673ffffffffffffffffffffffffffffffffffffffff168152602001908152602001600020819055508173ffffffffffffffffffffffffffffffffffffffff168373ffffffffffffffffffffffffffffffffffffffff167f8c5be1e5ebec7d5bd14f71427d1e84f3dd0314c0f7b2291e5b200ac8c7c3b92583604051610d249190611cfd565b60405180910390a3505050565b6000610d3d8484610a56565b90507fffffffffffffffffffffffffffffffffffffffffffffffffffffffffffffffff8114610db75781811015610da9576040517f08c379a0000000000000000000000000000000000000000000000000000000008152600401610da0906125d0565b60405180910390fd5b610db68484848403610b68565b5b50505050565b600073ffffffffffffffffffffffffffffffffffffffff168373ffffffffffffffffffffffffffffffffffffffff1603610e2c576040517f08c379a0000000000000000000000000000000000000000000000000000000008152600401610e2390612662565b60405180910390fd5b600073ffffffffffffffffffffffffffffffffffffffff168273ffffffffffffffffffffffffffffffffffffffff1603610e9b576040517f08c379a0000000000000000000000000000000000000000000000000000000008152600401610e92906126f4565b60405180910390fd5b610ea683838361156a565b60008060008573ffffffffffffffffffffffffffffffffffffffff1673ffffffffffffffffffffffffffffffffffffffff16815260200190815260200160002054905081811015610f2c576040517f08c379a0000000000000000000000000000000000000000000000000000000008152600401610f2390612786565b60405180910390fd5b8181036000808673ffffffffffffffffffffffffffffffffffffffff1673ffffffffffffffffffffffffffffffffffffffff16815260200190815260200160002081905550816000808573ffffffffffffffffffffffffffffffffffffffff1673ffffffffffffffffffffffffffffffffffffffff168152602001908152602001600020600082825401925050819055508273ffffffffffffffffffffffffffffffffffffffff168473ffffffffffffffffffffffffffffffffffffffff167fddf252ad1be2c89b69c2b068fc378daa952ba7f163c4a11628f55a4df523b3ef8460405161101a9190611cfd565b60405180910390a361102d84848461156f565b50505050565b60007f000000000000000000000000000000000000000000000000000000000000000073ffffffffffffffffffffffffffffffffffffffff163073ffffffffffffffffffffffffffffffffffffffff161480156110af57507f000000000000000000000000000000000000000000000000000000000000000046145b156110dc577f000000000000000000000000000000000000000000000000000000000000000090506110e7565b6110e4611574565b90505b90565b6110f2610b60565b73ffffffffffffffffffffffffffffffffffffffff166111106107be565b73ffffffffffffffffffffffffffffffffffffffff1614611166576040517f08c379a000000000000000000000000000000000000000000000000000000000815260040161115d906127f2565b60405180910390fd5b565b611172828261160a565b5050565b600073ffffffffffffffffffffffffffffffffffffffff168273ffffffffffffffffffffffffffffffffffffffff16036111e5576040517f08c379a00000000000000000000000000000000000000000000000000000000081526004016111dc90612884565b60405180910390fd5b6111f18260008361156a565b60008060008473ffffffffffffffffffffffffffffffffffffffff1673ffffffffffffffffffffffffffffffffffffffff16815260200190815260200160002054905081811015611277576040517f08c379a000000000000000000000000000000000000000000000000000000000815260040161126e90612916565b60405180910390fd5b8181036000808573ffffffffffffffffffffffffffffffffffffffff1673ffffffffffffffffffffffffffffffffffffffff1681526020019081526020016000208190555081600260008282540392505081905550600073ffffffffffffffffffffffffffffffffffffffff168373ffffffffffffffffffffffffffffffffffffffff167fddf252ad1be2c89b69c2b068fc378daa952ba7f163c4a11628f55a4df523b3ef8460405161132a9190611cfd565b60405180910390a361133e8360008461156f565b505050565b6000600960009054906101000a900473ffffffffffffffffffffffffffffffffffffffff16905081600960006101000a81548173ffffffffffffffffffffffffffffffffffffffff021916908373ffffffffffffffffffffffffffffffffffffffff1602179055508173ffffffffffffffffffffffffffffffffffffffff168173ffffffffffffffffffffffffffffffffffffffff167f8be0079c531659141344cd1fd0a4f28419497f9722a3daafe3b4186f6b6457e060405160405180910390a35050565b600081600001549050919050565b606060ff60001b83146114345761142d83611674565b90506114c1565b81805461144090612140565b80601f016020809104026020016040519081016040528092919081815260200182805461146c90612140565b80156114b95780601f1061148e576101008083540402835291602001916114b9565b820191906000526020600020905b81548152906001019060200180831161149c57829003601f168201915b505050505090505b92915050565b600080600760008473ffffffffffffffffffffffffffffffffffffffff1673ffffffffffffffffffffffffffffffffffffffff168152602001908152602001600020905061151481611409565b915061151f816116e8565b50919050565b6000611538611532611033565b836116fe565b9050919050565b60008060006115508787878761173f565b9150915061155d81611821565b8192505050949350505050565b505050565b505050565b60007f8b73c3c69bb8fe3d512ecc4cf759cc79239f7b179b0ffacaa9a75d522b39400f7f00000000000000000000000000000000000000000000000000000000000000007f000000000000000000000000000000000000000000000000000000000000000046306040516020016115ef959493929190612936565b60405160208183030381529060405280519060200120905090565b611612610558565b8161161b610508565b61162591906121a0565b1115611666576040517f08c379a000000000000000000000000000000000000000000000000000000000815260040161165d906129d5565b60405180910390fd5b6116708282611987565b5050565b6060600061168183611add565b90506000602067ffffffffffffffff8111156116a05761169f6121d4565b5b6040519080825280601f01601f1916602001820160405280156116d25781602001600182028036833780820191505090505b5090508181528360208201528092505050919050565b6001816000016000828254019250508190555050565b60006040517f190100000000000000000000000000000000000000000000000000000000000081528360028201528260228201526042812091505092915050565b6000807f7fffffffffffffffffffffffffffffff5d576e7357a4501ddfe92f46681b20a08360001c111561177a576000600391509150611818565b60006001878787876040516000815260200160405260405161179f94939291906129f5565b6020604051602081039080840390855afa1580156117c1573d6000803e3d6000fd5b505050602060405103519050600073ffffffffffffffffffffffffffffffffffffffff168173ffffffffffffffffffffffffffffffffffffffff160361180f57600060019250925050611818565b80600092509250505b94509492505050565b6000600481111561183557611834612a3a565b5b81600481111561184857611847612a3a565b5b0315611984576001600481111561186257611861612a3a565b5b81600481111561187557611874612a3a565b5b036118b5576040517f08c379a00000000000000000000000000000000000000000000000000000000081526004016118ac90612ab5565b60405180910390fd5b600260048111156118c9576118c8612a3a565b5b8160048111156118dc576118db612a3a565b5b0361191c576040517f08c379a000000000000000000000000000000000000000000000000000000000815260040161191390612b21565b60405180910390fd5b600360048111156119305761192f612a3a565b5b81600481111561194357611942612a3a565b5b03611983576040517f08c379a000000000000000000000000000000000000000000000000000000000815260040161197a90612bb3565b60405180910390fd5b5b50565b600073ffffffffffffffffffffffffffffffffffffffff168273ffffffffffffffffffffffffffffffffffffffff16036119f6576040517f08c379a00000000000000000000000000000000000000000000000000000000081526004016119ed90612c1f565b60405180910390fd5b611a026000838361156a565b8060026000828254611a1491906121a0565b92505081905550806000808473ffffffffffffffffffffffffffffffffffffffff1673ffffffffffffffffffffffffffffffffffffffff168152602001908152602001600020600082825401925050819055508173ffffffffffffffffffffffffffffffffffffffff16600073ffffffffffffffffffffffffffffffffffffffff167fddf252ad1be2c89b69c2b068fc378daa952ba7f163c4a11628f55a4df523b3ef83604051611ac59190611cfd565b60405180910390a3611ad96000838361156f565b5050565b60008060ff8360001c169050601f811115611b24576040517fb3512b0c00000000000000000000000000000000000000000000000000000000815260040160405180910390fd5b80915050919050565b600081519050919050565b600082825260208201905092915050565b60005b83811015611b67578082015181840152602081019050611b4c565b60008484015250505050565b6000601f19601f8301169050919050565b6000611b8f82611b2d565b611b998185611b38565b9350611ba9818560208601611b49565b611bb281611b73565b840191505092915050565b60006020820190508181036000830152611bd78184611b84565b905092915050565b600080fd5b600073ffffffffffffffffffffffffffffffffffffffff82169050919050565b6000611c0f82611be4565b9050919050565b611c1f81611c04565b8114611c2a57600080fd5b50565b600081359050611c3c81611c16565b92915050565b6000819050919050565b611c5581611c42565b8114611c6057600080fd5b50565b600081359050611c7281611c4c565b92915050565b60008060408385031215611c8f57611c8e611bdf565b5b6000611c9d85828601611c2d565b9250506020611cae85828601611c63565b9150509250929050565b60008115159050919050565b611ccd81611cb8565b82525050565b6000602082019050611ce86000830184611cc4565b92915050565b611cf781611c42565b82525050565b6000602082019050611d126000830184611cee565b92915050565b600080600060608486031215611d3157611d30611bdf565b5b6000611d3f86828701611c2d565b9350506020611d5086828701611c2d565b9250506040611d6186828701611c63565b9150509250925092565b600060ff82169050919050565b611d8181611d6b565b82525050565b6000602082019050611d9c6000830184611d78565b92915050565b6000819050919050565b611db581611da2565b82525050565b6000602082019050611dd06000830184611dac565b92915050565b600060208284031215611dec57611deb611bdf565b5b6000611dfa84828501611c63565b91505092915050565b600060208284031215611e1957611e18611bdf565b5b6000611e2784828501611c2d565b91505092915050565b60007fff0000000000000000000000000000000000000000000000000000000000000082169050919050565b611e6581611e30565b82525050565b611e7481611c04565b82525050565b600081519050919050565b600082825260208201905092915050565b6000819050602082019050919050565b611eaf81611c42565b82525050565b6000611ec18383611ea6565b60208301905092915050565b6000602082019050919050565b6000611ee582611e7a565b611eef8185611e85565b9350611efa83611e96565b8060005b83811015611f2b578151611f128882611eb5565b9750611f1d83611ecd565b925050600181019050611efe565b5085935050505092915050565b600060e082019050611f4d600083018a611e5c565b8181036020830152611f5f8189611b84565b90508181036040830152611f738188611b84565b9050611f826060830187611cee565b611f8f6080830186611e6b565b611f9c60a0830185611dac565b81810360c0830152611fae8184611eda565b905098975050505050505050565b6000602082019050611fd16000830184611e6b565b92915050565b611fe081611d6b565b8114611feb57600080fd5b50565b600081359050611ffd81611fd7565b92915050565b61200c81611da2565b811461201757600080fd5b50565b60008135905061202981612003565b92915050565b600080600080600080600060e0888a03121561204e5761204d611bdf565b5b600061205c8a828b01611c2d565b975050602061206d8a828b01611c2d565b965050604061207e8a828b01611c63565b955050606061208f8a828b01611c63565b94505060806120a08a828b01611fee565b93505060a06120b18a828b0161201a565b92505060c06120c28a828b0161201a565b91505092959891949750929550565b600080604083850312156120e8576120e7611bdf565b5b60006120f685828601611c2d565b925050602061210785828601611c2d565b9150509250929050565b7f4e487b7100000000000000000000000000000000000000000000000000000000600052602260045260246000fd5b6000600282049050600182168061215857607f821691505b60208210810361216b5761216a612111565b5b50919050565b7f4e487b7100000000000000000000000000000000000000000000000000000000600052601160045260246000fd5b60006121ab82611c42565b91506121b683611c42565b92508282019050808211156121ce576121cd612171565b5b92915050565b7f4e487b7100000000000000000000000000000000000000000000000000000000600052604160045260246000fd5b7f45524332303a2064656372656173656420616c6c6f77616e63652062656c6f7760008201527f207a65726f000000000000000000000000000000000000000000000000000000602082015250565b600061225f602583611b38565b915061226a82612203565b604082019050919050565b6000602082019050818103600083015261228e81612252565b9050919050565b7f45524332305065726d69743a206578706972656420646561646c696e65000000600082015250565b60006122cb601d83611b38565b91506122d682612295565b602082019050919050565b600060208201905081810360008301526122fa816122be565b9050919050565b600060c0820190506123166000830189611dac565b6123236020830188611e6b565b6123306040830187611e6b565b61233d6060830186611cee565b61234a6080830185611cee565b61235760a0830184611cee565b979650505050505050565b7f45524332305065726d69743a20696e76616c6964207369676e61747572650000600082015250565b6000612398601e83611b38565b91506123a382612362565b602082019050919050565b600060208201905081810360008301526123c78161238b565b9050919050565b7f4f776e61626c653a206e6577206f776e657220697320746865207a65726f206160008201527f6464726573730000000000000000000000000000000000000000000000000000602082015250565b600061242a602683611b38565b9150612435826123ce565b604082019050919050565b600060208201905081810360008301526124598161241d565b9050919050565b7f45524332303a20617070726f76652066726f6d20746865207a65726f2061646460008201527f7265737300000000000000000000000000000000000000000000000000000000602082015250565b60006124bc602483611b38565b91506124c782612460565b604082019050919050565b600060208201905081810360008301526124eb816124af565b9050919050565b7f45524332303a20617070726f766520746f20746865207a65726f20616464726560008201527f7373000000000000000000000000000000000000000000000000000000000000602082015250565b600061254e602283611b38565b9150612559826124f2565b604082019050919050565b6000602082019050818103600083015261257d81612541565b9050919050565b7f45524332303a20696e73756666696369656e7420616c6c6f77616e6365000000600082015250565b60006125ba601d83611b38565b91506125c582612584565b602082019050919050565b600060208201905081810360008301526125e9816125ad565b9050919050565b7f45524332303a207472616e736665722066726f6d20746865207a65726f20616460008201527f6472657373000000000000000000000000000000000000000000000000000000602082015250565b600061264c602583611b38565b9150612657826125f0565b604082019050919050565b6000602082019050818103600083015261267b8161263f565b9050919050565b7f45524332303a207472616e7366657220746f20746865207a65726f206164647260008201527f6573730000000000000000000000000000000000000000000000000000000000602082015250565b60006126de602383611b38565b91506126e982612682565b604082019050919050565b6000602082019050818103600083015261270d816126d1565b9050919050565b7f45524332303a207472616e7366657220616d6f756e742065786365656473206260008201527f616c616e63650000000000000000000000000000000000000000000000000000602082015250565b6000612770602683611b38565b915061277b82612714565b604082019050919050565b6000602082019050818103600083015261279f81612763565b9050919050565b7f4f776e61626c653a2063616c6c6572206973206e6f7420746865206f776e6572600082015250565b60006127dc602083611b38565b91506127e7826127a6565b602082019050919050565b6000602082019050818103600083015261280b816127cf565b9050919050565b7f45524332303a206275726e2066726f6d20746865207a65726f2061646472657360008201527f7300000000000000000000000000000000000000000000000000000000000000602082015250565b600061286e602183611b38565b915061287982612812565b604082019050919050565b6000602082019050818103600083015261289d81612861565b9050919050565b7f45524332303a206275726e20616d6f756e7420657863656564732062616c616e60008201527f6365000000000000000000000000000000000000000000000000000000000000602082015250565b6000612900602283611b38565b915061290b826128a4565b604082019050919050565b6000602082019050818103600083015261292f816128f3565b9050919050565b600060a08201905061294b6000830188611dac565b6129586020830187611dac565b6129656040830186611dac565b6129726060830185611cee565b61297f6080830184611e6b565b9695505050505050565b7f45524332304361707065643a2063617020657863656564656400000000000000600082015250565b60006129bf601983611b38565b91506129ca82612989565b602082019050919050565b600060208201905081810360008301526129ee816129b2565b9050919050565b6000608082019050612a0a6000830187611dac565b612a176020830186611d78565b612a246040830185611dac565b612a316060830184611dac565b95945050505050565b7f4e487b7100000000000000000000000000000000000000000000000000000000600052602160045260246000fd5b7f45434453413a20696e76616c6964207369676e61747572650000000000000000600082015250565b6000612a9f601883611b38565b9150612aaa82612a69565b602082019050919050565b60006020820190508181036000830152612ace81612a92565b9050919050565b7f45434453413a20696e76616c6964207369676e6174757265206c656e67746800600082015250565b6000612b0b601f83611b38565b9150612b1682612ad5565b602082019050919050565b60006020820190508181036000830152612b3a81612afe565b9050919050565b7f45434453413a20696e76616c6964207369676e6174757265202773272076616c60008201527f7565000000000000000000000000000000000000000000000000000000000000602082015250565b6000612b9d602283611b38565b9150612ba882612b41565b604082019050919050565b60006020820190508181036000830152612bcc81612b90565b9050919050565b7f45524332303a206d696e7420746f20746865207a65726f206164647265737300600082015250565b6000612c09601f83611b38565b9150612c1482612bd3565b602082019050919050565b60006020820190508181036000830152612c3881612bfc565b905091905056fea26469706673582212204bbc8c964ed2d3eb5ab40dc23707520e5fd1c35f95e66c6d3d6d0a499c3e39b364736f6c63430008130033",
  "linkReferences": {},
  "deployedLinkReferences": {}
}