{
  "_format": "hh-sol-artifact-1",
  "contractName": "ERC1155NFT",
  "sourceName": "contracts/ERC1155NFT.sol",
  "abi": [
    {
      "inputs": [
        {
          "internalType": "string",
          "name": "_name",
          "type": "string"
        },
        {
          "internalType": "string",
          "name": "_symbol",
          "type": "string"
        },
        {
          "internalType": "string",
          "name": "_baseTokenURI",
          "type": "string"
        },
        {
          "internalType": "uint256",
          "name": "_maxSupply",
          "type": "uint256"
        },
        {
          "internalType": "uint256",
          "name": "_royaltyPercentage",
          "type": "uint256"
        },
        {
          "internalType": "address",
          "name": "_royaltyRecipient",
          "type": "address"
        },
        {
          "internalType": "uint256",
          "name": "_mintPrice",
          "type": "uint256"
        },
        {
          "internalType": "bool",
          "name": "_isPublicMint",
          "type": "bool"
        },
        {
          "internalType": "address",
          "name": "_owner",
          "type": "address"
        }
      ],
      "stateMutability": "nonpayable",
      "type": "constructor"
    },
    {
      "anonymous": false,
      "inputs": [
        {
          "indexed": true,
          "internalType": "address",
          "name": "account",
          "type": "address"
        },
        {
          "indexed": true,
          "internalType": "address",
          "name": "operator",
          "type": "address"
        },
        {
          "indexed": false,
          "internalType": "bool",
          "name": "approved",
          "type": "bool"
        }
      ],
      "name": "ApprovalForAll",
      "type": "event"
    },
    {
      "anonymous": false,
      "inputs": [
        {
          "indexed": false,
          "internalType": "string",
          "name": "newBaseURI",
          "type": "string"
        }
      ],
      "name": "BaseURIUpdated",
      "type": "event"
    },
    {
      "anonymous": false,
      "inputs": [
        {
          "indexed": false,
          "internalType": "uint256",
          "name": "newPrice",
          "type": "uint256"
        }
      ],
      "name": "MintPriceUpdated",
      "type": "event"
    },
    {
      "anonymous": false,
      "inputs": [
        {
          "indexed": true,
          "internalType": "address",
          "name": "minter",
          "type": "address"
        },
        {
          "indexed": true,
          "internalType": "uint256",
          "name": "tokenId",
          "type": "uint256"
        },
        {
          "indexed": false,
          "internalType": "uint256",
          "name": "amount",
          "type": "uint256"
        },
        {
          "indexed": false,
          "internalType": "string",
          "name": "tokenURI",
          "type": "string"
        }
      ],
      "name": "NFTMinted",
      "type": "event"
    },
    {
      "anonymous": false,
      "inputs": [
        {
          "indexed": true,
          "internalType": "address",
          "name": "previousOwner",
          "type": "address"
        },
        {
          "indexed": true,
          "internalType": "address",
          "name": "newOwner",
          "type": "address"
        }
      ],
      "name": "OwnershipTransferred",
      "type": "event"
    },
    {
      "anonymous": false,
      "inputs": [
        {
          "indexed": false,
          "internalType": "bool",
          "name": "enabled",
          "type": "bool"
        }
      ],
      "name": "PublicMintToggled",
      "type": "event"
    },
    {
      "anonymous": false,
      "inputs": [
        {
          "indexed": true,
          "internalType": "address",
          "name": "operator",
          "type": "address"
        },
        {
          "indexed": true,
          "internalType": "address",
          "name": "from",
          "type": "address"
        },
        {
          "indexed": true,
          "internalType": "address",
          "name": "to",
          "type": "address"
        },
        {
          "indexed": false,
          "internalType": "uint256[]",
          "name": "ids",
          "type": "uint256[]"
        },
        {
          "indexed": false,
          "internalType": "uint256[]",
          "name": "values",
          "type": "uint256[]"
        }
      ],
      "name": "TransferBatch",
      "type": "event"
    },
    {
      "anonymous": false,
      "inputs": [
        {
          "indexed": true,
          "internalType": "address",
          "name": "operator",
          "type": "address"
        },
        {
          "indexed": true,
          "internalType": "address",
          "name": "from",
          "type": "address"
        },
        {
          "indexed": true,
          "internalType": "address",
          "name": "to",
          "type": "address"
        },
        {
          "indexed": false,
          "internalType": "uint256",
          "name": "id",
          "type": "uint256"
        },
        {
          "indexed": false,
          "internalType": "uint256",
          "name": "value",
          "type": "uint256"
        }
      ],
      "name": "TransferSingle",
      "type": "event"
    },
    {
      "anonymous": false,
      "inputs": [
        {
          "indexed": false,
          "internalType": "string",
          "name": "value",
          "type": "string"
        },
        {
          "indexed": true,
          "internalType": "uint256",
          "name": "id",
          "type": "uint256"
        }
      ],
      "name": "URI",
      "type": "event"
    },
    {
      "anonymous": false,
      "inputs": [
        {
          "indexed": true,
          "internalType": "address",
          "name": "recipient",
          "type": "address"
        },
        {
          "indexed": false,
          "internalType": "uint256",
          "name": "amount",
          "type": "uint256"
        }
      ],
      "name": "Withdrawn",
      "type": "event"
    },
    {
      "inputs": [
        {
          "internalType": "address[]",
          "name": "addresses",
          "type": "address[]"
        }
      ],
      "name": "addToWhitelist",
      "outputs": [],
      "stateMutability": "nonpayable",
      "type": "function"
    },
    {
      "inputs": [
        {
          "internalType": "address",
          "name": "account",
          "type": "address"
        },
        {
          "internalType": "uint256",
          "name": "id",
          "type": "uint256"
        }
      ],
      "name": "balanceOf",
      "outputs": [
        {
          "internalType": "uint256",
          "name": "",
          "type": "uint256"
        }
      ],
      "stateMutability": "view",
      "type": "function"
    },
    {
      "inputs": [
        {
          "internalType": "address[]",
          "name": "accounts",
          "type": "address[]"
        },
        {
          "internalType": "uint256[]",
          "name": "ids",
          "type": "uint256[]"
        }
      ],
      "name": "balanceOfBatch",
      "outputs": [
        {
          "internalType": "uint256[]",
          "name": "",
          "type": "uint256[]"
        }
      ],
      "stateMutability": "view",
      "type": "function"
    },
    {
      "inputs": [],
      "name": "baseTokenURI",
      "outputs": [
        {
          "internalType": "string",
          "name": "",
          "type": "string"
        }
      ],
      "stateMutability": "view",
      "type": "function"
    },
    {
      "inputs": [
        {
          "internalType": "address[]",
          "name": "recipients",
          "type": "address[]"
        },
        {
          "internalType": "uint256[]",
          "name": "tokenIds",
          "type": "uint256[]"
        },
        {
          "internalType": "uint256[]",
          "name": "amounts",
          "type": "uint256[]"
        },
        {
          "internalType": "string[]",
          "name": "tokenURIs",
          "type": "string[]"
        }
      ],
      "name": "batchMint",
      "outputs": [],
      "stateMutability": "nonpayable",
      "type": "function"
    },
    {
      "inputs": [
        {
          "internalType": "address",
          "name": "account",
          "type": "address"
        },
        {
          "internalType": "address",
          "name": "operator",
          "type": "address"
        }
      ],
      "name": "isApprovedForAll",
      "outputs": [
        {
          "internalType": "bool",
          "name": "",
          "type": "bool"
        }
      ],
      "stateMutability": "view",
      "type": "function"
    },
    {
      "inputs": [],
      "name": "isPublicMintEnabled",
      "outputs": [
        {
          "internalType": "bool",
          "name": "",
          "type": "bool"
        }
      ],
      "stateMutability": "view",
      "type": "function"
    },
    {
      "inputs": [],
      "name": "maxSupply",
      "outputs": [
        {
          "internalType": "uint256",
          "name": "",
          "type": "uint256"
        }
      ],
      "stateMutability": "view",
      "type": "function"
    },
    {
      "inputs": [
        {
          "internalType": "uint256",
          "name": "amount",
          "type": "uint256"
        },
        {
          "internalType": "string",
          "name": "tokenURI",
          "type": "string"
        }
      ],
      "name": "mint",
      "outputs": [
        {
          "internalType": "uint256",
          "name": "",
          "type": "uint256"
        }
      ],
      "stateMutability": "payable",
      "type": "function"
    },
    {
      "inputs": [],
      "name": "mintPrice",
      "outputs": [
        {
          "internalType": "uint256",
          "name": "",
          "type": "uint256"
        }
      ],
      "stateMutability": "view",
      "type": "function"
    },
    {
      "inputs": [],
      "name": "name",
      "outputs": [
        {
          "internalType": "string",
          "name": "",
          "type": "string"
        }
      ],
      "stateMutability": "view",
      "type": "function"
    },
    {
      "inputs": [],
      "name": "owner",
      "outputs": [
        {
          "internalType": "address",
          "name": "",
          "type": "address"
        }
      ],
      "stateMutability": "view",
      "type": "function"
    },
    {
      "inputs": [
        {
          "internalType": "address[]",
          "name": "addresses",
          "type": "address[]"
        }
      ],
      "name": "removeFromWhitelist",
      "outputs": [],
      "stateMutability": "nonpayable",
      "type": "function"
    },
    {
      "inputs": [],
      "name": "renounceOwnership",
      "outputs": [],
      "stateMutability": "nonpayable",
      "type": "function"
    },
    {
      "inputs": [
        {
          "internalType": "uint256",
          "name": "",
          "type": "uint256"
        },
        {
          "internalType": "uint256",
          "name": "salePrice",
          "type": "uint256"
        }
      ],
      "name": "royaltyInfo",
      "outputs": [
        {
          "internalType": "address",
          "name": "receiver",
          "type": "address"
        },
        {
          "internalType": "uint256",
          "name": "royaltyAmount",
          "type": "uint256"
        }
      ],
      "stateMutability": "view",
      "type": "function"
    },
    {
      "inputs": [],
      "name": "royaltyPercentage",
      "outputs": [
        {
          "internalType": "uint256",
          "name": "",
          "type": "uint256"
        }
      ],
      "stateMutability": "view",
      "type": "function"
    },
    {
      "inputs": [],
      "name": "royaltyRecipient",
      "outputs": [
        {
          "internalType": "address",
          "name": "",
          "type": "address"
        }
      ],
      "stateMutability": "view",
      "type": "function"
    },
    {
      "inputs": [
        {
          "internalType": "address",
          "name": "from",
          "type": "address"
        },
        {
          "internalType": "address",
          "name": "to",
          "type": "address"
        },
        {
          "internalType": "uint256[]",
          "name": "ids",
          "type": "uint256[]"
        },
        {
          "internalType": "uint256[]",
          "name": "amounts",
          "type": "uint256[]"
        },
        {
          "internalType": "bytes",
          "name": "data",
          "type": "bytes"
        }
      ],
      "name": "safeBatchTransferFrom",
      "outputs": [],
      "stateMutability": "nonpayable",
      "type": "function"
    },
    {
      "inputs": [
        {
          "internalType": "address",
          "name": "from",
          "type": "address"
        },
        {
          "internalType": "address",
          "name": "to",
          "type": "address"
        },
        {
          "internalType": "uint256",
          "name": "id",
          "type": "uint256"
        },
        {
          "internalType": "uint256",
          "name": "amount",
          "type": "uint256"
        },
        {
          "internalType": "bytes",
          "name": "data",
          "type": "bytes"
        }
      ],
      "name": "safeTransferFrom",
      "outputs": [],
      "stateMutability": "nonpayable",
      "type": "function"
    },
    {
      "inputs": [
        {
          "internalType": "address",
          "name": "operator",
          "type": "address"
        },
        {
          "internalType": "bool",
          "name": "approved",
          "type": "bool"
        }
      ],
      "name": "setApprovalForAll",
      "outputs": [],
      "stateMutability": "nonpayable",
      "type": "function"
    },
    {
      "inputs": [
        {
          "internalType": "string",
          "name": "_baseTokenURI",
          "type": "string"
        }
      ],
      "name": "setBaseURI",
      "outputs": [],
      "stateMutability": "nonpayable",
      "type": "function"
    },
    {
      "inputs": [
        {
          "internalType": "uint256",
          "name": "_mintPrice",
          "type": "uint256"
        }
      ],
      "name": "setMintPrice",
      "outputs": [],
      "stateMutability": "nonpayable",
      "type": "function"
    },
    {
      "inputs": [
        {
          "internalType": "uint256",
          "name": "tokenId",
          "type": "uint256"
        },
        {
          "internalType": "string",
          "name": "tokenURI",
          "type": "string"
        }
      ],
      "name": "setTokenURI",
      "outputs": [],
      "stateMutability": "nonpayable",
      "type": "function"
    },
    {
      "inputs": [
        {
          "internalType": "bytes4",
          "name": "interfaceId",
          "type": "bytes4"
        }
      ],
      "name": "supportsInterface",
      "outputs": [
        {
          "internalType": "bool",
          "name": "",
          "type": "bool"
        }
      ],
      "stateMutability": "view",
      "type": "function"
    },
    {
      "inputs": [],
      "name": "symbol",
      "outputs": [
        {
          "internalType": "string",
          "name": "",
          "type": "string"
        }
      ],
      "stateMutability": "view",
      "type": "function"
    },
    {
      "inputs": [
        {
          "internalType": "bool",
          "name": "_enabled",
          "type": "bool"
        }
      ],
      "name": "togglePublicMint",
      "outputs": [],
      "stateMutability": "nonpayable",
      "type": "function"
    },
    {
      "inputs": [
        {
          "internalType": "uint256",
          "name": "",
          "type": "uint256"
        }
      ],
      "name": "tokenSupply",
      "outputs": [
        {
          "internalType": "uint256",
          "name": "",
          "type": "uint256"
        }
      ],
      "stateMutability": "view",
      "type": "function"
    },
    {
      "inputs": [],
      "name": "totalSupply",
      "outputs": [
        {
          "internalType": "uint256",
          "name": "",
          "type": "uint256"
        }
      ],
      "stateMutability": "view",
      "type": "function"
    },
    {
      "inputs": [
        {
          "internalType": "uint256",
          "name": "tokenId",
          "type": "uint256"
        }
      ],
      "name": "totalSupply",
      "outputs": [
        {
          "internalType": "uint256",
          "name": "",
          "type": "uint256"
        }
      ],
      "stateMutability": "view",
      "type": "function"
    },
    {
      "inputs": [
        {
          "internalType": "address",
          "name": "newOwner",
          "type": "address"
        }
      ],
      "name": "transferOwnership",
      "outputs": [],
      "stateMutability": "nonpayable",
      "type": "function"
    },
    {
      "inputs": [
        {
          "internalType": "uint256",
          "name": "tokenId",
          "type": "uint256"
        }
      ],
      "name": "uri",
      "outputs": [
        {
          "internalType": "string",
          "name": "",
          "type": "string"
        }
      ],
      "stateMutability": "view",
      "type": "function"
    },
    {
      "inputs": [
        {
          "internalType": "address",
          "name": "",
          "type": "address"
        }
      ],
      "name": "whitelist",
      "outputs": [
        {
          "internalType": "bool",
          "name": "",
          "type": "bool"
        }
      ],
      "stateMutability": "view",
      "type": "function"
    },
    {
      "inputs": [],
      "name": "withdraw",
      "outputs": [],
      "stateMutability": "nonpayable",
      "type": "function"
    }
  ],
  "bytecode": "0x60806040523480156200001157600080fd5b5060405162002e8f38038062002e8f833981016040819052620000349162000247565b866200004081620000f0565b506200004c3362000102565b600160045560066200005f8a82620003bd565b5060076200006e8982620003bd565b5060086200007d8882620003bd565b506009869055600b859055600c8054600a859055831515600160a01b026001600160a81b03199091166001600160a01b03871617179055620000bf8162000102565b6001600160a01b03166000908152600d60205260409020805460ff1916600117905550620004899650505050505050565b6002620000fe8282620003bd565b5050565b600380546001600160a01b038381166001600160a01b0319831681179093556040519116919082907f8be0079c531659141344cd1fd0a4f28419497f9722a3daafe3b4186f6b6457e090600090a35050565b634e487b7160e01b600052604160045260246000fd5b600082601f8301126200017c57600080fd5b81516001600160401b038082111562000199576200019962000154565b604051601f8301601f19908116603f01168101908282118183101715620001c457620001c462000154565b81604052838152602092508683858801011115620001e157600080fd5b600091505b83821015620002055785820183015181830184015290820190620001e6565b600093810190920192909252949350505050565b80516001600160a01b03811681146200023157600080fd5b919050565b805180151581146200023157600080fd5b60008060008060008060008060006101208a8c0312156200026757600080fd5b89516001600160401b03808211156200027f57600080fd5b6200028d8d838e016200016a565b9a5060208c0151915080821115620002a457600080fd5b620002b28d838e016200016a565b995060408c0151915080821115620002c957600080fd5b50620002d88c828d016200016a565b97505060608a0151955060808a01519450620002f760a08b0162000219565b935060c08a015192506200030e60e08b0162000236565b91506200031f6101008b0162000219565b90509295985092959850929598565b600181811c908216806200034357607f821691505b6020821081036200036457634e487b7160e01b600052602260045260246000fd5b50919050565b601f821115620003b857600081815260208120601f850160051c81016020861015620003935750805b601f850160051c820191505b81811015620003b4578281556001016200039f565b5050505b505050565b81516001600160401b03811115620003d957620003d962000154565b620003f181620003ea84546200032e565b846200036a565b602080601f831160018114620004295760008415620004105750858301515b600019600386901b1c1916600185901b178555620003b4565b600085815260208120601f198616915b828110156200045a5788860151825594840194600190910190840162000439565b5085821015620004795787850151600019600388901b60f8161c191681555b5050505050600190811b01905550565b6129f680620004996000396000f3fe6080604052600436106101ed5760003560e01c8063715018a61161010d578063a22cb465116100a0578063d5abeb011161006f578063d5abeb01146105ae578063e985e9c5146105c4578063f242432a1461060d578063f2fde38b1461062d578063f4a0a5281461064d57600080fd5b8063a22cb4651461052c578063b3a80e9c1461054c578063bd85b0391461056c578063d547cfb71461059957600080fd5b80638da5cb5b116100dc5780638da5cb5b146104a957806395d89b41146104c75780639b19251a146104dc5780639b7c1c831461050c57600080fd5b8063715018a61461044b57806377097fc8146104605780637f649783146104735780638a71bb2d1461049357600080fd5b80632a55205a116101855780634e1273f4116101545780634e1273f4146103c8578063548db174146103f557806355f804b3146104155780636817c76c1461043557600080fd5b80632a55205a1461031c5780632eb2c2d61461035b5780633ccfd60b1461037b5780634c00de821461039057600080fd5b80630e89341c116101c15780630e89341c14610298578063162094c4146102b857806318160ddd146102da5780632693ebf2146102ef57600080fd5b8062fdd58e146101f25780630116bc2d1461022557806301ffc9a71461025657806306fdde0314610276575b600080fd5b3480156101fe57600080fd5b5061021261020d366004611d88565b61066d565b6040519081526020015b60405180910390f35b34801561023157600080fd5b50600c5461024690600160a01b900460ff1681565b604051901515815260200161021c565b34801561026257600080fd5b50610246610271366004611dc8565b610706565b34801561028257600080fd5b5061028b610711565b60405161021c9190611e3c565b3480156102a457600080fd5b5061028b6102b3366004611e4f565b61079f565b3480156102c457600080fd5b506102d86102d3366004611f1d565b610880565b005b3480156102e657600080fd5b506102126108f7565b3480156102fb57600080fd5b5061021261030a366004611e4f565b600f6020526000908152604090205481565b34801561032857600080fd5b5061033c610337366004611f63565b610907565b604080516001600160a01b03909316835260208301919091520161021c565b34801561036757600080fd5b506102d8610376366004612019565b61093b565b34801561038757600080fd5b506102d8610987565b34801561039c57600080fd5b50600c546103b0906001600160a01b031681565b6040516001600160a01b03909116815260200161021c565b3480156103d457600080fd5b506103e86103e336600461212f565b610ae2565b60405161021c91906121c3565b34801561040157600080fd5b506102d86104103660046121d6565b610c0b565b34801561042157600080fd5b506102d861043036600461220a565b610c7f565b34801561044157600080fd5b50610212600a5481565b34801561045757600080fd5b506102d8610cd7565b61021261046e366004611f1d565b610ce9565b34801561047f57600080fd5b506102d861048e3660046121d6565b610f43565b34801561049f57600080fd5b50610212600b5481565b3480156104b557600080fd5b506003546001600160a01b03166103b0565b3480156104d357600080fd5b5061028b610fb3565b3480156104e857600080fd5b506102466104f736600461223e565b600d6020526000908152604090205460ff1681565b34801561051857600080fd5b506102d8610527366004612269565b610fc0565b34801561053857600080fd5b506102d8610547366004612284565b611015565b34801561055857600080fd5b506102d86105673660046122b7565b611020565b34801561057857600080fd5b50610212610587366004611e4f565b6000908152600f602052604090205490565b3480156105a557600080fd5b5061028b61129f565b3480156105ba57600080fd5b5061021260095481565b3480156105d057600080fd5b506102466105df3660046123db565b6001600160a01b03918216600090815260016020908152604080832093909416825291909152205460ff1690565b34801561061957600080fd5b506102d8610628366004612405565b6112ac565b34801561063957600080fd5b506102d861064836600461223e565b6112f1565b34801561065957600080fd5b506102d8610668366004611e4f565b61136a565b60006001600160a01b0383166106dd5760405162461bcd60e51b815260206004820152602a60248201527f455243313135353a2061646472657373207a65726f206973206e6f742061207660448201526930b634b21037bbb732b960b11b60648201526084015b60405180910390fd5b506000818152602081815260408083206001600160a01b03861684529091529020545b92915050565b6000610700826113a7565b6006805461071e90612469565b80601f016020809104026020016040519081016040528092919081815260200182805461074a90612469565b80156107975780601f1061076c57610100808354040283529160200191610797565b820191906000526020600020905b81548152906001019060200180831161077a57829003601f168201915b505050505081565b6000818152600e60205260408120805460609291906107bd90612469565b80601f01602080910402602001604051908101604052809291908181526020018280546107e990612469565b80156108365780601f1061080b57610100808354040283529160200191610836565b820191906000526020600020905b81548152906001019060200180831161081957829003601f168201915b5050505050905060008151111561084d5792915050565b6008610858846113f7565b6040516020016108699291906124a3565b604051602081830303815290604052915050919050565b6108886114ff565b6000828152600f60205260409020546108da5760405162461bcd60e51b8152602060048201526014602482015273151bdad95b88191bd95cc81b9bdd08195e1a5cdd60621b60448201526064016106d4565b6000828152600e602052604090206108f28282612570565b505050565b600061090260055490565b905090565b600080612710600b548461091b9190612645565b6109259190612672565b600c546001600160a01b03169590945092505050565b6001600160a01b038516331480610957575061095785336105df565b6109735760405162461bcd60e51b81526004016106d490612686565b6109808585858585611559565b5050505050565b61098f6114ff565b610997611736565b47806109de5760405162461bcd60e51b81526020600482015260166024820152754e6f2062616c616e636520746f20776974686472617760501b60448201526064016106d4565b60006109f26003546001600160a01b031690565b6001600160a01b03168260405160006040518083038185875af1925050503d8060008114610a3c576040519150601f19603f3d011682016040523d82523d6000602084013e610a41565b606091505b5050905080610a865760405162461bcd60e51b815260206004820152601160248201527015da5d1a191c985dd85b0819985a5b1959607a1b60448201526064016106d4565b6003546001600160a01b03166001600160a01b03167f7084f5476618d8e60b11ef0d7d3f06914655adb8793e28ff7f018d4c76d505d583604051610acc91815260200190565b60405180910390a25050610ae06001600455565b565b60608151835114610b475760405162461bcd60e51b815260206004820152602960248201527f455243313135353a206163636f756e747320616e6420696473206c656e677468604482015268040dad2e6dac2e8c6d60bb1b60648201526084016106d4565b600083516001600160401b03811115610b6257610b62611e68565b604051908082528060200260200182016040528015610b8b578160200160208202803683370190505b50905060005b8451811015610c0357610bd6858281518110610baf57610baf6126d4565b6020026020010151858381518110610bc957610bc96126d4565b602002602001015161066d565b828281518110610be857610be86126d4565b6020908102919091010152610bfc816126ea565b9050610b91565b509392505050565b610c136114ff565b60005b8151811015610c7b576000600d6000848481518110610c3757610c376126d4565b6020908102919091018101516001600160a01b03168252810191909152604001600020805460ff191691151591909117905580610c73816126ea565b915050610c16565b5050565b610c876114ff565b6008610c938282612570565b50610c9d8161178f565b7f6741b2fc379fad678116fe3d4d4b9a1a184ab53ba36b86ad0fa66340b1ab41ad81604051610ccc9190611e3c565b60405180910390a150565b610cdf6114ff565b610ae0600061179b565b6000610cf3611736565b600c54600160a01b900460ff1680610d1a5750336000908152600d602052604090205460ff165b80610d2f57506003546001600160a01b031633145b610d715760405162461bcd60e51b8152602060048201526013602482015272135a5b9d1a5b99c81b9bdd08185b1b1bddd959606a1b60448201526064016106d4565b60008311610dc15760405162461bcd60e51b815260206004820152601d60248201527f416d6f756e74206d7573742062652067726561746572207468616e203000000060448201526064016106d4565b82600a54610dcf9190612645565b341015610e155760405162461bcd60e51b8152602060048201526014602482015273125b9cdd59999a58da595b9d081c185e5b595b9d60621b60448201526064016106d4565b610e23600580546001019055565b6000610e2e60055490565b905060095460001480610e5c57506009546000828152600f6020526040902054610e59908690612703565b11155b610ea25760405162461bcd60e51b8152602060048201526017602482015276576f756c6420657863656564206d617820737570706c7960481b60448201526064016106d4565b610ebd338286604051806020016040528060008152506117ed565b6000818152600e60205260409020610ed58482612570565b506000818152600f602052604081208054869290610ef4908490612703565b9091555050604051819033907f01f8bd07e6c27ff813d5c6d3c4bf0313a1d75043cf978214b504b794075e526690610f2f9088908890612716565b60405180910390a390506107006001600455565b610f4b6114ff565b60005b8151811015610c7b576001600d6000848481518110610f6f57610f6f6126d4565b6020908102919091018101516001600160a01b03168252810191909152604001600020805460ff191691151591909117905580610fab816126ea565b915050610f4e565b6007805461071e90612469565b610fc86114ff565b600c8054821515600160a01b0260ff60a01b199091161790556040517fa81e445dac2343503dc87e4663774817434721db7d985310a6959766e6d4480e90610ccc90831515815260200190565b610c7b338383611901565b6110286114ff565b611030611736565b82518451148015611042575081518351145b801561104f575080518251145b6110935760405162461bcd60e51b8152602060048201526015602482015274082e4e4c2f240d8cadccee8d040dad2e6dac2e8c6d605b1b60448201526064016106d4565b60005b845181101561128e5760008482815181106110b3576110b36126d4565b6020026020010151905060008483815181106110d1576110d16126d4565b602002602001015190506009546000148061110757506009546000838152600f6020526040902054611104908390612703565b11155b61114d5760405162461bcd60e51b8152602060048201526017602482015276576f756c6420657863656564206d617820737570706c7960481b60448201526064016106d4565b611181878481518110611162576111626126d4565b60200260200101518383604051806020016040528060008152506117ed565b6000828152600e60205260409020805461119a90612469565b90506000036111de578383815181106111b5576111b56126d4565b6020026020010151600e600084815260200190815260200160002090816111dc9190612570565b505b6000828152600f6020526040812080548392906111fc908490612703565b9250508190555081878481518110611216576112166126d4565b60200260200101516001600160a01b03167f01f8bd07e6c27ff813d5c6d3c4bf0313a1d75043cf978214b504b794075e52668387878151811061125b5761125b6126d4565b6020026020010151604051611271929190612716565b60405180910390a350508080611286906126ea565b915050611096565b506112996001600455565b50505050565b6008805461071e90612469565b6001600160a01b0385163314806112c857506112c885336105df565b6112e45760405162461bcd60e51b81526004016106d490612686565b61098085858585856119e1565b6112f96114ff565b6001600160a01b03811661135e5760405162461bcd60e51b815260206004820152602660248201527f4f776e61626c653a206e6577206f776e657220697320746865207a65726f206160448201526564647265737360d01b60648201526084016106d4565b6113678161179b565b50565b6113726114ff565b600a8190556040518181527f525b762709cc2a983aec5ccdfd807a061f993c91090b5bcd7da92ca254976aaa90602001610ccc565b60006001600160e01b03198216636cdb3d1360e11b14806113d857506001600160e01b031982166303a24d0760e21b145b8061070057506301ffc9a760e01b6001600160e01b0319831614610700565b60608160000361141e5750506040805180820190915260018152600360fc1b602082015290565b8160005b81156114485780611432816126ea565b91506114419050600a83612672565b9150611422565b6000816001600160401b0381111561146257611462611e68565b6040519080825280601f01601f19166020018201604052801561148c576020820181803683370190505b5090505b84156114f7576114a160018361272f565b91506114ae600a86612742565b6114b9906030612703565b60f81b8183815181106114ce576114ce6126d4565b60200101906001600160f81b031916908160001a9053506114f0600a86612672565b9450611490565b949350505050565b6003546001600160a01b03163314610ae05760405162461bcd60e51b815260206004820181905260248201527f4f776e61626c653a2063616c6c6572206973206e6f7420746865206f776e657260448201526064016106d4565b81518351146115bb5760405162461bcd60e51b815260206004820152602860248201527f455243313135353a2069647320616e6420616d6f756e7473206c656e677468206044820152670dad2e6dac2e8c6d60c31b60648201526084016106d4565b6001600160a01b0384166115e15760405162461bcd60e51b81526004016106d490612756565b3360005b84518110156116c8576000858281518110611602576116026126d4565b602002602001015190506000858381518110611620576116206126d4565b602090810291909101810151600084815280835260408082206001600160a01b038e1683529093529190912054909150818110156116705760405162461bcd60e51b81526004016106d49061279b565b6000838152602081815260408083206001600160a01b038e8116855292528083208585039055908b168252812080548492906116ad908490612703565b92505081905550505050806116c1906126ea565b90506115e5565b50846001600160a01b0316866001600160a01b0316826001600160a01b03167f4a39dc06d4c0dbc64b70af90fd698a233a518aa5d07e595d983b8c0526c8f7fb87876040516117189291906127e5565b60405180910390a461172e818787878787611b0b565b505050505050565b6002600454036117885760405162461bcd60e51b815260206004820152601f60248201527f5265656e7472616e637947756172643a207265656e7472616e742063616c6c0060448201526064016106d4565b6002600455565b6002610c7b8282612570565b600380546001600160a01b038381166001600160a01b0319831681179093556040519116919082907f8be0079c531659141344cd1fd0a4f28419497f9722a3daafe3b4186f6b6457e090600090a35050565b6001600160a01b03841661184d5760405162461bcd60e51b815260206004820152602160248201527f455243313135353a206d696e7420746f20746865207a65726f206164647265736044820152607360f81b60648201526084016106d4565b33600061185985611c66565b9050600061186685611c66565b90506000868152602081815260408083206001600160a01b038b16845290915281208054879290611898908490612703565b909155505060408051878152602081018790526001600160a01b03808a1692600092918716917fc3d58168c5ae7397731d063d5bbf3d657854427343f4c083240f7aacaa2d0f62910160405180910390a46118f883600089898989611cb1565b50505050505050565b816001600160a01b0316836001600160a01b0316036119745760405162461bcd60e51b815260206004820152602960248201527f455243313135353a2073657474696e6720617070726f76616c20737461747573604482015268103337b91039b2b63360b91b60648201526084016106d4565b6001600160a01b03838116600081815260016020908152604080832094871680845294825291829020805460ff191686151590811790915591519182527f17307eab39ab6107e8899845ad3d59bd9653f200f220920489ca2b5937696c31910160405180910390a3505050565b6001600160a01b038416611a075760405162461bcd60e51b81526004016106d490612756565b336000611a1385611c66565b90506000611a2085611c66565b90506000868152602081815260408083206001600160a01b038c16845290915290205485811015611a635760405162461bcd60e51b81526004016106d49061279b565b6000878152602081815260408083206001600160a01b038d8116855292528083208985039055908a16825281208054889290611aa0908490612703565b909155505060408051888152602081018890526001600160a01b03808b16928c821692918816917fc3d58168c5ae7397731d063d5bbf3d657854427343f4c083240f7aacaa2d0f62910160405180910390a4611b00848a8a8a8a8a611cb1565b505050505050505050565b6001600160a01b0384163b1561172e5760405163bc197c8160e01b81526001600160a01b0385169063bc197c8190611b4f9089908990889088908890600401612813565b6020604051808303816000875af1925050508015611b8a575060408051601f3d908101601f19168201909252611b8791810190612871565b60015b611c3657611b9661288e565b806308c379a003611bcf5750611baa6128aa565b80611bb55750611bd1565b8060405162461bcd60e51b81526004016106d49190611e3c565b505b60405162461bcd60e51b815260206004820152603460248201527f455243313135353a207472616e7366657220746f206e6f6e2d455243313135356044820152732932b1b2b4bb32b91034b6b83632b6b2b73a32b960611b60648201526084016106d4565b6001600160e01b0319811663bc197c8160e01b146118f85760405162461bcd60e51b81526004016106d490612933565b60408051600180825281830190925260609160009190602080830190803683370190505090508281600081518110611ca057611ca06126d4565b602090810291909101015292915050565b6001600160a01b0384163b1561172e5760405163f23a6e6160e01b81526001600160a01b0385169063f23a6e6190611cf5908990899088908890889060040161297b565b6020604051808303816000875af1925050508015611d30575060408051601f3d908101601f19168201909252611d2d91810190612871565b60015b611d3c57611b9661288e565b6001600160e01b0319811663f23a6e6160e01b146118f85760405162461bcd60e51b81526004016106d490612933565b80356001600160a01b0381168114611d8357600080fd5b919050565b60008060408385031215611d9b57600080fd5b611da483611d6c565b946020939093013593505050565b6001600160e01b03198116811461136757600080fd5b600060208284031215611dda57600080fd5b8135611de581611db2565b9392505050565b60005b83811015611e07578181015183820152602001611def565b50506000910152565b60008151808452611e28816020860160208601611dec565b601f01601f19169290920160200192915050565b602081526000611de56020830184611e10565b600060208284031215611e6157600080fd5b5035919050565b634e487b7160e01b600052604160045260246000fd5b601f8201601f191681016001600160401b0381118282101715611ea357611ea3611e68565b6040525050565b600082601f830112611ebb57600080fd5b81356001600160401b03811115611ed457611ed4611e68565b604051611eeb601f8301601f191660200182611e7e565b818152846020838601011115611f0057600080fd5b816020850160208301376000918101602001919091529392505050565b60008060408385031215611f3057600080fd5b8235915060208301356001600160401b03811115611f4d57600080fd5b611f5985828601611eaa565b9150509250929050565b60008060408385031215611f7657600080fd5b50508035926020909101359150565b60006001600160401b03821115611f9e57611f9e611e68565b5060051b60200190565b600082601f830112611fb957600080fd5b81356020611fc682611f85565b604051611fd38282611e7e565b83815260059390931b8501820192828101915086841115611ff357600080fd5b8286015b8481101561200e5780358352918301918301611ff7565b509695505050505050565b600080600080600060a0868803121561203157600080fd5b61203a86611d6c565b945061204860208701611d6c565b935060408601356001600160401b038082111561206457600080fd5b61207089838a01611fa8565b9450606088013591508082111561208657600080fd5b61209289838a01611fa8565b935060808801359150808211156120a857600080fd5b506120b588828901611eaa565b9150509295509295909350565b600082601f8301126120d357600080fd5b813560206120e082611f85565b6040516120ed8282611e7e565b83815260059390931b850182019282810191508684111561210d57600080fd5b8286015b8481101561200e5761212281611d6c565b8352918301918301612111565b6000806040838503121561214257600080fd5b82356001600160401b038082111561215957600080fd5b612165868387016120c2565b9350602085013591508082111561217b57600080fd5b50611f5985828601611fa8565b600081518084526020808501945080840160005b838110156121b85781518752958201959082019060010161219c565b509495945050505050565b602081526000611de56020830184612188565b6000602082840312156121e857600080fd5b81356001600160401b038111156121fe57600080fd5b6114f7848285016120c2565b60006020828403121561221c57600080fd5b81356001600160401b0381111561223257600080fd5b6114f784828501611eaa565b60006020828403121561225057600080fd5b611de582611d6c565b80358015158114611d8357600080fd5b60006020828403121561227b57600080fd5b611de582612259565b6000806040838503121561229757600080fd5b6122a083611d6c565b91506122ae60208401612259565b90509250929050565b600080600080608085870312156122cd57600080fd5b84356001600160401b03808211156122e457600080fd5b6122f0888389016120c2565b955060209150818701358181111561230757600080fd5b61231389828a01611fa8565b95505060408701358181111561232857600080fd5b61233489828a01611fa8565b94505060608701358181111561234957600080fd5b8701601f8101891361235a57600080fd5b803561236581611f85565b6040516123728282611e7e565b82815260059290921b830185019185810191508b83111561239257600080fd5b8584015b838110156123ca578035868111156123ae5760008081fd5b6123bc8e8983890101611eaa565b845250918601918601612396565b50989b979a50959850505050505050565b600080604083850312156123ee57600080fd5b6123f783611d6c565b91506122ae60208401611d6c565b600080600080600060a0868803121561241d57600080fd5b61242686611d6c565b945061243460208701611d6c565b9350604086013592506060860135915060808601356001600160401b0381111561245d57600080fd5b6120b588828901611eaa565b600181811c9082168061247d57607f821691505b60208210810361249d57634e487b7160e01b600052602260045260246000fd5b50919050565b60008084546124b181612469565b600182811680156124c957600181146124de5761250d565b60ff198416875282151583028701945061250d565b8860005260208060002060005b858110156125045781548a8201529084019082016124eb565b50505082870194505b505050508351612521818360208801611dec565b01949350505050565b601f8211156108f257600081815260208120601f850160051c810160208610156125515750805b601f850160051c820191505b8181101561172e5782815560010161255d565b81516001600160401b0381111561258957612589611e68565b61259d816125978454612469565b8461252a565b602080601f8311600181146125d257600084156125ba5750858301515b600019600386901b1c1916600185901b17855561172e565b600085815260208120601f198616915b82811015612601578886015182559484019460019091019084016125e2565b508582101561261f5787850151600019600388901b60f8161c191681555b5050505050600190811b01905550565b634e487b7160e01b600052601160045260246000fd5b80820281158282048414176107005761070061262f565b634e487b7160e01b600052601260045260246000fd5b6000826126815761268161265c565b500490565b6020808252602e908201527f455243313135353a2063616c6c6572206973206e6f7420746f6b656e206f776e60408201526d195c881bdc88185c1c1c9bdd995960921b606082015260800190565b634e487b7160e01b600052603260045260246000fd5b6000600182016126fc576126fc61262f565b5060010190565b808201808211156107005761070061262f565b8281526040602082015260006114f76040830184611e10565b818103818111156107005761070061262f565b6000826127515761275161265c565b500690565b60208082526025908201527f455243313135353a207472616e7366657220746f20746865207a65726f206164604082015264647265737360d81b606082015260800190565b6020808252602a908201527f455243313135353a20696e73756666696369656e742062616c616e636520666f60408201526939103a3930b739b332b960b11b606082015260800190565b6040815260006127f86040830185612188565b828103602084015261280a8185612188565b95945050505050565b6001600160a01b0386811682528516602082015260a06040820181905260009061283f90830186612188565b82810360608401526128518186612188565b905082810360808401526128658185611e10565b98975050505050505050565b60006020828403121561288357600080fd5b8151611de581611db2565b600060033d11156128a75760046000803e5060005160e01c5b90565b600060443d10156128b85790565b6040516003193d81016004833e81513d6001600160401b0381602484011181841117156128e757505050505090565b82850191508151818111156128ff5750505050505090565b843d87010160208285010111156129195750505050505090565b61292860208286010187611e7e565b509095945050505050565b60208082526028908201527f455243313135353a204552433131353552656365697665722072656a656374656040820152676420746f6b656e7360c01b606082015260800190565b6001600160a01b03868116825285166020820152604081018490526060810183905260a0608082018190526000906129b590830184611e10565b97965050505050505056fea2646970667358221220b84a1bcef1f04088f5928ccb66fcfa3bcf2ea01c3257b061cc63fd376e83b39364736f6c63430008130033",
  "linkReferences": {},
  "deployedLinkReferences": {}
}