{
  "_format": "hh-sol-artifact-1",
  "contractName": "CustodialWalletERC20",
  "sourceName": "contracts/CustodialWalletERC20.sol",
  "abi": [
    {
      "inputs": [
        {
          "internalType": "address",
          "name": "_masterWallet",
          "type": "address"
        }
      ],
      "stateMutability": "nonpayable",
      "type": "constructor"
    },
    {
      "anonymous": false,
      "inputs": [
        {
          "indexed": true,
          "internalType": "address",
          "name": "newImplementation",
          "type": "address"
        },
        {
          "indexed": false,
          "internalType": "uint256",
          "name": "nonce",
          "type": "uint256"
        }
      ],
      "name": "ImplementationChanged",
      "type": "event"
    },
    {
      "anonymous": false,
      "inputs": [
        {
          "indexed": true,
          "internalType": "address",
          "name": "newMasterWallet",
          "type": "address"
        },
        {
          "indexed": false,
          "internalType": "uint256",
          "name": "nonce",
          "type": "uint256"
        }
      ],
      "name": "MasterWalletChanged",
      "type": "event"
    },
    {
      "anonymous": false,
      "inputs": [
        {
          "indexed": true,
          "internalType": "address",
          "name": "sender",
          "type": "address"
        },
        {
          "indexed": false,
          "internalType": "uint256",
          "name": "amount",
          "type": "uint256"
        },
        {
          "indexed": false,
          "internalType": "uint256",
          "name": "nonce",
          "type": "uint256"
        }
      ],
      "name": "Received",
      "type": "event"
    },
    {
      "anonymous": false,
      "inputs": [
        {
          "indexed": true,
          "internalType": "address",
          "name": "recipient",
          "type": "address"
        },
        {
          "indexed": false,
          "internalType": "uint256",
          "name": "amount",
          "type": "uint256"
        },
        {
          "indexed": false,
          "internalType": "uint256",
          "name": "nonce",
          "type": "uint256"
        }
      ],
      "name": "TransferredNative",
      "type": "event"
    },
    {
      "anonymous": false,
      "inputs": [
        {
          "indexed": true,
          "internalType": "address",
          "name": "token",
          "type": "address"
        },
        {
          "indexed": true,
          "internalType": "address",
          "name": "recipient",
          "type": "address"
        },
        {
          "indexed": false,
          "internalType": "uint256",
          "name": "amount",
          "type": "uint256"
        },
        {
          "indexed": false,
          "internalType": "uint256",
          "name": "nonce",
          "type": "uint256"
        }
      ],
      "name": "TransferredTokens",
      "type": "event"
    },
    {
      "inputs": [
        {
          "internalType": "address[]",
          "name": "recipients",
          "type": "address[]"
        },
        {
          "internalType": "uint256[]",
          "name": "amounts",
          "type": "uint256[]"
        }
      ],
      "name": "batchTransferNative",
      "outputs": [],
      "stateMutability": "nonpayable",
      "type": "function"
    },
    {
      "inputs": [
        {
          "internalType": "address",
          "name": "tokenAddress",
          "type": "address"
        },
        {
          "internalType": "address[]",
          "name": "recipients",
          "type": "address[]"
        },
        {
          "internalType": "uint256[]",
          "name": "amounts",
          "type": "uint256[]"
        }
      ],
      "name": "batchTransferTokens",
      "outputs": [],
      "stateMutability": "nonpayable",
      "type": "function"
    },
    {
      "inputs": [
        {
          "internalType": "address[]",
          "name": "tokens",
          "type": "address[]"
        }
      ],
      "name": "getAllBalances",
      "outputs": [
        {
          "internalType": "uint256",
          "name": "nativeBalance",
          "type": "uint256"
        },
        {
          "internalType": "uint256[]",
          "name": "tokenBalances",
          "type": "uint256[]"
        }
      ],
      "stateMutability": "view",
      "type": "function"
    },
    {
      "inputs": [],
      "name": "getNativeBalance",
      "outputs": [
        {
          "internalType": "uint256",
          "name": "",
          "type": "uint256"
        }
      ],
      "stateMutability": "view",
      "type": "function"
    },
    {
      "inputs": [
        {
          "internalType": "address",
          "name": "tokenAddress",
          "type": "address"
        }
      ],
      "name": "getTokenBalance",
      "outputs": [
        {
          "internalType": "uint256",
          "name": "",
          "type": "uint256"
        }
      ],
      "stateMutability": "view",
      "type": "function"
    },
    {
      "inputs": [],
      "name": "implementation",
      "outputs": [
        {
          "internalType": "address",
          "name": "",
          "type": "address"
        }
      ],
      "stateMutability": "view",
      "type": "function"
    },
    {
      "inputs": [],
      "name": "masterWallet",
      "outputs": [
        {
          "internalType": "address",
          "name": "",
          "type": "address"
        }
      ],
      "stateMutability": "view",
      "type": "function"
    },
    {
      "inputs": [],
      "name": "nonce",
      "outputs": [
        {
          "internalType": "uint256",
          "name": "",
          "type": "uint256"
        }
      ],
      "stateMutability": "view",
      "type": "function"
    },
    {
      "inputs": [
        {
          "internalType": "address",
          "name": "recipient",
          "type": "address"
        },
        {
          "internalType": "uint256",
          "name": "amount",
          "type": "uint256"
        }
      ],
      "name": "transferNative",
      "outputs": [],
      "stateMutability": "nonpayable",
      "type": "function"
    },
    {
      "inputs": [
        {
          "internalType": "address",
          "name": "tokenAddress",
          "type": "address"
        },
        {
          "internalType": "address",
          "name": "recipient",
          "type": "address"
        },
        {
          "internalType": "uint256",
          "name": "amount",
          "type": "uint256"
        }
      ],
      "name": "transferTokens",
      "outputs": [],
      "stateMutability": "nonpayable",
      "type": "function"
    },
    {
      "inputs": [
        {
          "internalType": "address",
          "name": "_newImplementation",
          "type": "address"
        }
      ],
      "name": "updateImplementation",
      "outputs": [],
      "stateMutability": "nonpayable",
      "type": "function"
    },
    {
      "inputs": [
        {
          "internalType": "address",
          "name": "_newMasterWallet",
          "type": "address"
        }
      ],
      "name": "updateMasterWallet",
      "outputs": [],
      "stateMutability": "nonpayable",
      "type": "function"
    },
    {
      "stateMutability": "payable",
      "type": "receive"
    }
  ],
  "bytecode": "0x60806040523480156200001157600080fd5b5060405162001d2438038062001d24833981810160405281019062000037919062000132565b600160008190555080600160006101000a81548173ffffffffffffffffffffffffffffffffffffffff021916908373ffffffffffffffffffffffffffffffffffffffff16021790555030600260006101000a81548173ffffffffffffffffffffffffffffffffffffffff021916908373ffffffffffffffffffffffffffffffffffffffff1602179055505062000164565b600080fd5b600073ffffffffffffffffffffffffffffffffffffffff82169050919050565b6000620000fa82620000cd565b9050919050565b6200010c81620000ed565b81146200011857600080fd5b50565b6000815190506200012c8162000101565b92915050565b6000602082840312156200014b576200014a620000c8565b5b60006200015b848285016200011b565b91505092915050565b611bb080620001746000396000f3fe6080604052600436106100ab5760003560e01c80637d2e90c2116100645780637d2e90c21461029057806388a9d554146102b9578063a64b6e5f146102e4578063affed0e01461030d578063e4aa001014610338578063fc0d0117146103765761017f565b8063025b22bc146101845780631d5479ae146101ad578063355d695c146101d65780633aecd0e3146101ff5780635c60da1b1461023c57806366f658e9146102675761017f565b3661017f5760016000808282546100c2919061120d565b92505081905550600080549050600360008154809291906100e290611241565b91905055503373ffffffffffffffffffffffffffffffffffffffff167f74cf3d18d0ddca79038197ad0dd2c7fa5005ef61a5d1ed190e8a8a437e2fcf1034600354604051610131929190611298565b60405180910390a2600054811461017d576040517f08c379a00000000000000000000000000000000000000000000000000000000081526004016101749061131e565b60405180910390fd5b005b600080fd5b34801561019057600080fd5b506101ab60048036038101906101a691906113b0565b6103a1565b005b3480156101b957600080fd5b506101d460048036038101906101cf91906113b0565b6104ff565b005b3480156101e257600080fd5b506101fd60048036038101906101f89190611625565b61065d565b005b34801561020b57600080fd5b50610226600480360381019061022191906113b0565b610966565b60405161023391906116b0565b60405180910390f35b34801561024857600080fd5b506102516109ee565b60405161025e91906116da565b60405180910390f35b34801561027357600080fd5b5061028e600480360381019061028991906116f5565b610a14565b005b34801561029c57600080fd5b506102b760048036038101906102b2919061176d565b610c89565b005b3480156102c557600080fd5b506102ce610e32565b6040516102db91906116b0565b60405180910390f35b3480156102f057600080fd5b5061030b600480360381019061030691906117ad565b610e3a565b005b34801561031957600080fd5b50610322611077565b60405161032f91906116b0565b60405180910390f35b34801561034457600080fd5b5061035f600480360381019061035a9190611800565b61107d565b60405161036d929190611907565b60405180910390f35b34801561038257600080fd5b5061038b6111ae565b60405161039891906116da565b60405180910390f35b600160009054906101000a900473ffffffffffffffffffffffffffffffffffffffff1673ffffffffffffffffffffffffffffffffffffffff163373ffffffffffffffffffffffffffffffffffffffff1614610431576040517f08c379a000000000000000000000000000000000000000000000000000000000815260040161042890611983565b60405180910390fd5b80600260006101000a81548173ffffffffffffffffffffffffffffffffffffffff021916908373ffffffffffffffffffffffffffffffffffffffff1602179055506003600081548092919061048590611241565b9190505550600260009054906101000a900473ffffffffffffffffffffffffffffffffffffffff1673ffffffffffffffffffffffffffffffffffffffff167fd28bf20613e0fd421fe7e034beb18388ed45dfae003723519b0af8952cbeb14a6003546040516104f491906116b0565b60405180910390a250565b600160009054906101000a900473ffffffffffffffffffffffffffffffffffffffff1673ffffffffffffffffffffffffffffffffffffffff163373ffffffffffffffffffffffffffffffffffffffff161461058f576040517f08c379a000000000000000000000000000000000000000000000000000000000815260040161058690611983565b60405180910390fd5b80600160006101000a81548173ffffffffffffffffffffffffffffffffffffffff021916908373ffffffffffffffffffffffffffffffffffffffff160217905550600360008154809291906105e390611241565b9190505550600160009054906101000a900473ffffffffffffffffffffffffffffffffffffffff1673ffffffffffffffffffffffffffffffffffffffff167fc9f56afce61bf137449a300e09bda779478d37ad939d0721eb78fb0d90156b2760035460405161065291906116b0565b60405180910390a250565b600160009054906101000a900473ffffffffffffffffffffffffffffffffffffffff1673ffffffffffffffffffffffffffffffffffffffff163373ffffffffffffffffffffffffffffffffffffffff16146106ed576040517f08c379a00000000000000000000000000000000000000000000000000000000081526004016106e490611983565b60405180910390fd5b60016000808282546106ff919061120d565b925050819055506000805490508151835114610750576040517f08c379a0000000000000000000000000000000000000000000000000000000008152600401610747906119ef565b60405180910390fd5b600084905060005b845181101561091a576003600081548092919061077490611241565b91905055508173ffffffffffffffffffffffffffffffffffffffff1663a9059cbb8683815181106107a8576107a7611a0f565b5b60200260200101518684815181106107c3576107c2611a0f565b5b60200260200101516040518363ffffffff1660e01b81526004016107e8929190611a3e565b6020604051808303816000875af1158015610807573d6000803e3d6000fd5b505050506040513d601f19601f8201168201806040525081019061082b9190611a9f565b61086a576040517f08c379a000000000000000000000000000000000000000000000000000000000815260040161086190611b18565b60405180910390fd5b84818151811061087d5761087c611a0f565b5b602002602001015173ffffffffffffffffffffffffffffffffffffffff168673ffffffffffffffffffffffffffffffffffffffff167f4151ebdea64e7bf632f7e93899d2b87500ab37468507da501f150f51020b9d3c8684815181106108e6576108e5611a0f565b5b60200260200101516003546040516108ff929190611298565b60405180910390a3808061091290611241565b915050610758565b50506000548114610960576040517f08c379a00000000000000000000000000000000000000000000000000000000081526004016109579061131e565b60405180910390fd5b50505050565b6000808290508073ffffffffffffffffffffffffffffffffffffffff166370a08231306040518263ffffffff1660e01b81526004016109a591906116da565b602060405180830381865afa1580156109c2573d6000803e3d6000fd5b505050506040513d601f19601f820116820180604052508101906109e69190611b4d565b915050919050565b600260009054906101000a900473ffffffffffffffffffffffffffffffffffffffff1681565b600160009054906101000a900473ffffffffffffffffffffffffffffffffffffffff1673ffffffffffffffffffffffffffffffffffffffff163373ffffffffffffffffffffffffffffffffffffffff1614610aa4576040517f08c379a0000000000000000000000000000000000000000000000000000000008152600401610a9b90611983565b60405180910390fd5b6001600080828254610ab6919061120d565b925050819055506000805490508151835114610b07576040517f08c379a0000000000000000000000000000000000000000000000000000000008152600401610afe906119ef565b60405180910390fd5b60005b8351811015610c3f5760036000815480929190610b2690611241565b9190505550838181518110610b3e57610b3d611a0f565b5b602002602001015173ffffffffffffffffffffffffffffffffffffffff166108fc848381518110610b7257610b71611a0f565b5b60200260200101519081150290604051600060405180830381858888f19350505050158015610ba5573d6000803e3d6000fd5b50838181518110610bb957610bb8611a0f565b5b602002602001015173ffffffffffffffffffffffffffffffffffffffff167f5a25ac3eae6d44314b7e0b667fe64d67175df1351af1315851849a3bd2c735b4848381518110610c0b57610c0a611a0f565b5b6020026020010151600354604051610c24929190611298565b60405180910390a28080610c3790611241565b915050610b0a565b506000548114610c84576040517f08c379a0000000000000000000000000000000000000000000000000000000008152600401610c7b9061131e565b60405180910390fd5b505050565b600160009054906101000a900473ffffffffffffffffffffffffffffffffffffffff1673ffffffffffffffffffffffffffffffffffffffff163373ffffffffffffffffffffffffffffffffffffffff1614610d19576040517f08c379a0000000000000000000000000000000000000000000000000000000008152600401610d1090611983565b60405180910390fd5b6001600080828254610d2b919061120d565b9250508190555060008054905060036000815480929190610d4b90611241565b91905055508273ffffffffffffffffffffffffffffffffffffffff166108fc839081150290604051600060405180830381858888f19350505050158015610d96573d6000803e3d6000fd5b508273ffffffffffffffffffffffffffffffffffffffff167f5a25ac3eae6d44314b7e0b667fe64d67175df1351af1315851849a3bd2c735b483600354604051610de1929190611298565b60405180910390a26000548114610e2d576040517f08c379a0000000000000000000000000000000000000000000000000000000008152600401610e249061131e565b60405180910390fd5b505050565b600047905090565b600160009054906101000a900473ffffffffffffffffffffffffffffffffffffffff1673ffffffffffffffffffffffffffffffffffffffff163373ffffffffffffffffffffffffffffffffffffffff1614610eca576040517f08c379a0000000000000000000000000000000000000000000000000000000008152600401610ec190611983565b60405180910390fd5b6001600080828254610edc919061120d565b9250508190555060008054905060036000815480929190610efc90611241565b919050555060008490508073ffffffffffffffffffffffffffffffffffffffff1663a9059cbb85856040518363ffffffff1660e01b8152600401610f41929190611a3e565b6020604051808303816000875af1158015610f60573d6000803e3d6000fd5b505050506040513d601f19601f82011682018060405250810190610f849190611a9f565b610fc3576040517f08c379a0000000000000000000000000000000000000000000000000000000008152600401610fba90611b18565b60405180910390fd5b8373ffffffffffffffffffffffffffffffffffffffff168573ffffffffffffffffffffffffffffffffffffffff167f4151ebdea64e7bf632f7e93899d2b87500ab37468507da501f150f51020b9d3c85600354604051611024929190611298565b60405180910390a3506000548114611071576040517f08c379a00000000000000000000000000000000000000000000000000000000081526004016110689061131e565b60405180910390fd5b50505050565b60035481565b60006060479150825167ffffffffffffffff81111561109f5761109e6113f3565b5b6040519080825280602002602001820160405280156110cd5781602001602082028036833780820191505090505b50905060005b83518110156111a85760008482815181106110f1576110f0611a0f565b5b602002602001015190508073ffffffffffffffffffffffffffffffffffffffff166370a08231306040518263ffffffff1660e01b815260040161113491906116da565b602060405180830381865afa158015611151573d6000803e3d6000fd5b505050506040513d601f19601f820116820180604052508101906111759190611b4d565b83838151811061118857611187611a0f565b5b6020026020010181815250505080806111a090611241565b9150506110d3565b50915091565b600160009054906101000a900473ffffffffffffffffffffffffffffffffffffffff1681565b6000819050919050565b7f4e487b7100000000000000000000000000000000000000000000000000000000600052601160045260246000fd5b6000611218826111d4565b9150611223836111d4565b925082820190508082111561123b5761123a6111de565b5b92915050565b600061124c826111d4565b91507fffffffffffffffffffffffffffffffffffffffffffffffffffffffffffffffff820361127e5761127d6111de565b5b600182019050919050565b611292816111d4565b82525050565b60006040820190506112ad6000830185611289565b6112ba6020830184611289565b9392505050565b600082825260208201905092915050565b7f5265656e7472616e637947756172643a207265656e7472616e742063616c6c00600082015250565b6000611308601f836112c1565b9150611313826112d2565b602082019050919050565b60006020820190508181036000830152611337816112fb565b9050919050565b6000604051905090565b600080fd5b600080fd5b600073ffffffffffffffffffffffffffffffffffffffff82169050919050565b600061137d82611352565b9050919050565b61138d81611372565b811461139857600080fd5b50565b6000813590506113aa81611384565b92915050565b6000602082840312156113c6576113c5611348565b5b60006113d48482850161139b565b91505092915050565b600080fd5b6000601f19601f8301169050919050565b7f4e487b7100000000000000000000000000000000000000000000000000000000600052604160045260246000fd5b61142b826113e2565b810181811067ffffffffffffffff8211171561144a576114496113f3565b5b80604052505050565b600061145d61133e565b90506114698282611422565b919050565b600067ffffffffffffffff821115611489576114886113f3565b5b602082029050602081019050919050565b600080fd5b60006114b26114ad8461146e565b611453565b905080838252602082019050602084028301858111156114d5576114d461149a565b5b835b818110156114fe57806114ea888261139b565b8452602084019350506020810190506114d7565b5050509392505050565b600082601f83011261151d5761151c6113dd565b5b813561152d84826020860161149f565b91505092915050565b600067ffffffffffffffff821115611551576115506113f3565b5b602082029050602081019050919050565b61156b816111d4565b811461157657600080fd5b50565b60008135905061158881611562565b92915050565b60006115a161159c84611536565b611453565b905080838252602082019050602084028301858111156115c4576115c361149a565b5b835b818110156115ed57806115d98882611579565b8452602084019350506020810190506115c6565b5050509392505050565b600082601f83011261160c5761160b6113dd565b5b813561161c84826020860161158e565b91505092915050565b60008060006060848603121561163e5761163d611348565b5b600061164c8682870161139b565b935050602084013567ffffffffffffffff81111561166d5761166c61134d565b5b61167986828701611508565b925050604084013567ffffffffffffffff81111561169a5761169961134d565b5b6116a6868287016115f7565b9150509250925092565b60006020820190506116c56000830184611289565b92915050565b6116d481611372565b82525050565b60006020820190506116ef60008301846116cb565b92915050565b6000806040838503121561170c5761170b611348565b5b600083013567ffffffffffffffff81111561172a5761172961134d565b5b61173685828601611508565b925050602083013567ffffffffffffffff8111156117575761175661134d565b5b611763858286016115f7565b9150509250929050565b6000806040838503121561178457611783611348565b5b60006117928582860161139b565b92505060206117a385828601611579565b9150509250929050565b6000806000606084860312156117c6576117c5611348565b5b60006117d48682870161139b565b93505060206117e58682870161139b565b92505060406117f686828701611579565b9150509250925092565b60006020828403121561181657611815611348565b5b600082013567ffffffffffffffff8111156118345761183361134d565b5b61184084828501611508565b91505092915050565b600081519050919050565b600082825260208201905092915050565b6000819050602082019050919050565b61187e816111d4565b82525050565b60006118908383611875565b60208301905092915050565b6000602082019050919050565b60006118b482611849565b6118be8185611854565b93506118c983611865565b8060005b838110156118fa5781516118e18882611884565b97506118ec8361189c565b9250506001810190506118cd565b5085935050505092915050565b600060408201905061191c6000830185611289565b818103602083015261192e81846118a9565b90509392505050565b7f4f6e6c79206d61737465722077616c6c65742063616e20657865637574650000600082015250565b600061196d601e836112c1565b915061197882611937565b602082019050919050565b6000602082019050818103600083015261199c81611960565b9050919050565b7f4172726179206c656e67746873206d757374206d617463680000000000000000600082015250565b60006119d96018836112c1565b91506119e4826119a3565b602082019050919050565b60006020820190508181036000830152611a08816119cc565b9050919050565b7f4e487b7100000000000000000000000000000000000000000000000000000000600052603260045260246000fd5b6000604082019050611a5360008301856116cb565b611a606020830184611289565b9392505050565b60008115159050919050565b611a7c81611a67565b8114611a8757600080fd5b50565b600081519050611a9981611a73565b92915050565b600060208284031215611ab557611ab4611348565b5b6000611ac384828501611a8a565b91505092915050565b7f5472616e73666572206661696c65640000000000000000000000000000000000600082015250565b6000611b02600f836112c1565b9150611b0d82611acc565b602082019050919050565b60006020820190508181036000830152611b3181611af5565b9050919050565b600081519050611b4781611562565b92915050565b600060208284031215611b6357611b62611348565b5b6000611b7184828501611b38565b9150509291505056fea2646970667358221220f3f27c508b3b3bad8fa025e8cddb638ea2d102ffc664b0d234f2eeac117ddbd964736f6c63430008130033",
  "linkReferences": {},
  "deployedLinkReferences": {}
}